{"abi":[{"type":"constructor","inputs":[],"stateMutability":"nonpayable"},{"type":"function","name":"DEFAULT_ADMIN_ROLE","inputs":[],"outputs":[{"name":"","type":"bytes32","internalType":"bytes32"}],"stateMutability":"view"},{"type":"function","name":"MINTER_ROLE","inputs":[],"outputs":[{"name":"","type":"bytes32","internalType":"bytes32"}],"stateMutability":"view"},{"type":"function","name":"PAUSER_ROLE","inputs":[],"outputs":[{"name":"","type":"bytes32","internalType":"bytes32"}],"stateMutability":"view"},{"type":"function","name":"allowance","inputs":[{"name":"owner","type":"address","internalType":"address"},{"name":"spender","type":"address","internalType":"address"}],"outputs":[{"name":"","type":"uint256","internalType":"uint256"}],"stateMutability":"view"},{"type":"function","name":"approve","inputs":[{"name":"spender","type":"address","internalType":"address"},{"name":"value","type":"uint256","internalType":"uint256"}],"outputs":[{"name":"","type":"bool","internalType":"bool"}],"stateMutability":"nonpayable"},{"type":"function","name":"balanceOf","inputs":[{"name":"account","type":"address","internalType":"address"}],"outputs":[{"name":"","type":"uint256","internalType":"uint256"}],"stateMutability":"view"},{"type":"function","name":"burn","inputs":[{"name":"value","type":"uint256","internalType":"uint256"}],"outputs":[],"stateMutability":"nonpayable"},{"type":"function","name":"burnFrom","inputs":[{"name":"account","type":"address","internalType":"address"},{"name":"value","type":"uint256","internalType":"uint256"}],"outputs":[],"stateMutability":"nonpayable"},{"type":"function","name":"decimals","inputs":[],"outputs":[{"name":"","type":"uint8","internalType":"uint8"}],"stateMutability":"view"},{"type":"function","name":"getRoleAdmin","inputs":[{"name":"role","type":"bytes32","internalType":"bytes32"}],"outputs":[{"name":"","type":"bytes32","internalType":"bytes32"}],"stateMutability":"view"},{"type":"function","name":"grantRole","inputs":[{"name":"role","type":"bytes32","internalType":"bytes32"},{"name":"account","type":"address","internalType":"address"}],"outputs":[],"stateMutability":"nonpayable"},{"type":"function","name":"hasRole","inputs":[{"name":"role","type":"bytes32","internalType":"bytes32"},{"name":"account","type":"address","internalType":"address"}],"outputs":[{"name":"","type":"bool","internalType":"bool"}],"stateMutability":"view"},{"type":"function","name":"mint","inputs":[{"name":"to","type":"address","internalType":"address"},{"name":"amount","type":"uint256","internalType":"uint256"}],"outputs":[],"stateMutability":"nonpayable"},{"type":"function","name":"name","inputs":[],"outputs":[{"name":"","type":"string","internalType":"string"}],"stateMutability":"view"},{"type":"function","name":"pause","inputs":[],"outputs":[],"stateMutability":"nonpayable"},{"type":"function","name":"paused","inputs":[],"outputs":[{"name":"","type":"bool","internalType":"bool"}],"stateMutability":"view"},{"type":"function","name":"renounceRole","inputs":[{"name":"role","type":"bytes32","internalType":"bytes32"},{"name":"callerConfirmation","type":"address","internalType":"address"}],"outputs":[],"stateMutability":"nonpayable"},{"type":"function","name":"revokeRole","inputs":[{"name":"role","type":"bytes32","internalType":"bytes32"},{"name":"account","type":"address","internalType":"address"}],"outputs":[],"stateMutability":"nonpayable"},{"type":"function","name":"supportsInterface","inputs":[{"name":"interfaceId","type":"bytes4","internalType":"bytes4"}],"outputs":[{"name":"","type":"bool","internalType":"bool"}],"stateMutability":"view"},{"type":"function","name":"symbol","inputs":[],"outputs":[{"name":"","type":"string","internalType":"string"}],"stateMutability":"view"},{"type":"function","name":"totalSupply","inputs":[],"outputs":[{"name":"","type":"uint256","internalType":"uint256"}],"stateMutability":"view"},{"type":"function","name":"transfer","inputs":[{"name":"to","type":"address","internalType":"address"},{"name":"value","type":"uint256","internalType":"uint256"}],"outputs":[{"name":"","type":"bool","internalType":"bool"}],"stateMutability":"nonpayable"},{"type":"function","name":"transferFrom","inputs":[{"name":"from","type":"address","internalType":"address"},{"name":"to","type":"address","internalType":"address"},{"name":"value","type":"uint256","internalType":"uint256"}],"outputs":[{"name":"","type":"bool","internalType":"bool"}],"stateMutability":"nonpayable"},{"type":"function","name":"unpause","inputs":[],"outputs":[],"stateMutability":"nonpayable"},{"type":"event","name":"Approval","inputs":[{"name":"owner","type":"address","indexed":true,"internalType":"address"},{"name":"spender","type":"address","indexed":true,"internalType":"address"},{"name":"value","type":"uint256","indexed":false,"internalType":"uint256"}],"anonymous":false},{"type":"event","name":"Paused","inputs":[{"name":"account","type":"address","indexed":false,"internalType":"address"}],"anonymous":false},{"type":"event","name":"RoleAdminChanged","inputs":[{"name":"role","type":"bytes32","indexed":true,"internalType":"bytes32"},{"name":"previousAdminRole","type":"bytes32","indexed":true,"internalType":"bytes32"},{"name":"newAdminRole","type":"bytes32","indexed":true,"internalType":"bytes32"}],"anonymous":false},{"type":"event","name":"RoleGranted","inputs":[{"name":"role","type":"bytes32","indexed":true,"internalType":"bytes32"},{"name":"account","type":"address","indexed":true,"internalType":"address"},{"name":"sender","type":"address","indexed":true,"internalType":"address"}],"anonymous":false},{"type":"event","name":"RoleRevoked","inputs":[{"name":"role","type":"bytes32","indexed":true,"internalType":"bytes32"},{"name":"account","type":"address","indexed":true,"internalType":"address"},{"name":"sender","type":"address","indexed":true,"internalType":"address"}],"anonymous":false},{"type":"event","name":"Transfer","inputs":[{"name":"from","type":"address","indexed":true,"internalType":"address"},{"name":"to","type":"address","indexed":true,"internalType":"address"},{"name":"value","type":"uint256","indexed":false,"internalType":"uint256"}],"anonymous":false},{"type":"event","name":"Unpaused","inputs":[{"name":"account","type":"address","indexed":false,"internalType":"address"}],"anonymous":false},{"type":"error","name":"AccessControlBadConfirmation","inputs":[]},{"type":"error","name":"AccessControlUnauthorizedAccount","inputs":[{"name":"account","type":"address","internalType":"address"},{"name":"neededRole","type":"bytes32","internalType":"bytes32"}]},{"type":"error","name":"ERC20InsufficientAllowance","inputs":[{"name":"spender","type":"address","internalType":"address"},{"name":"allowance","type":"uint256","internalType":"uint256"},{"name":"needed","type":"uint256","internalType":"uint256"}]},{"type":"error","name":"ERC20InsufficientBalance","inputs":[{"name":"sender","type":"address","internalType":"address"},{"name":"balance","type":"uint256","internalType":"uint256"},{"name":"needed","type":"uint256","internalType":"uint256"}]},{"type":"error","name":"ERC20InvalidApprover","inputs":[{"name":"approver","type":"address","internalType":"address"}]},{"type":"error","name":"ERC20InvalidReceiver","inputs":[{"name":"receiver","type":"address","internalType":"address"}]},{"type":"error","name":"ERC20InvalidSender","inputs":[{"name":"sender","type":"address","internalType":"address"}]},{"type":"error","name":"ERC20InvalidSpender","inputs":[{"name":"spender","type":"address","internalType":"address"}]},{"type":"error","name":"EnforcedPause","inputs":[]},{"type":"error","name":"ExpectedPause","inputs":[]}],"bytecode":{"object":"0x608060405234801561001057600080fd5b506040518060400160405280600f81526020016e2330b4b63630a837b8102a37b5b2b760891b8152506040518060400160405280600381526020016211941560ea1b815250816003908161006491906103c1565b50600461007182826103c1565b50506005805460ff1916905550610089600033610107565b506100b47f65d7a28e3265b37a6474929f336521b332c1681b933f6cb9f3376673440d862a33610107565b506100d7336100c56012600a61057a565b6100d290620f4240610590565b6101b7565b6101017f9f2df0fed2c77648de5860a4cc508cd0818c85b8b8a1ab4ceeef8d981c8956a633610107565b506105ba565b60008281526006602090815260408083206001600160a01b038516845290915281205460ff166101ad5760008381526006602090815260408083206001600160a01b03861684529091529020805460ff191660011790556101653390565b6001600160a01b0316826001600160a01b0316847f2f8788117e7eff1d82e926ec794901d17c78024a50270940304540a733656f0d60405160405180910390a45060016101b1565b5060005b92915050565b6001600160a01b0382166101e65760405163ec442f0560e01b8152600060048201526024015b60405180910390fd5b6101f2600083836101f6565b5050565b6001600160a01b03831661022157806002600082825461021691906105a7565b909155506102939050565b6001600160a01b038316600090815260208190526040902054818110156102745760405163391434e360e21b81526001600160a01b038516600482015260248101829052604481018390526064016101dd565b6001600160a01b03841660009081526020819052604090209082900390555b6001600160a01b0382166102af576002805482900390556102ce565b6001600160a01b03821660009081526020819052604090208054820190555b816001600160a01b0316836001600160a01b03167fddf252ad1be2c89b69c2b068fc378daa952ba7f163c4a11628f55a4df523b3ef8360405161031391815260200190565b60405180910390a3505050565b634e487b7160e01b600052604160045260246000fd5b600181811c9082168061034a57607f821691505b60208210810361036a57634e487b7160e01b600052602260045260246000fd5b50919050565b601f8211156103bc576000816000526020600020601f850160051c810160208610156103995750805b601f850160051c820191505b818110156103b8578281556001016103a5565b5050505b505050565b81516001600160401b038111156103da576103da610320565b6103ee816103e88454610336565b84610370565b602080601f831160018114610423576000841561040b5750858301515b600019600386901b1c1916600185901b1785556103b8565b600085815260208120601f198616915b8281101561045257888601518255948401946001909101908401610433565b50858210156104705787850151600019600388901b60f8161c191681555b5050505050600190811b01905550565b634e487b7160e01b600052601160045260246000fd5b600181815b808511156104d15781600019048211156104b7576104b7610480565b808516156104c457918102915b93841c939080029061049b565b509250929050565b6000826104e8575060016101b1565b816104f5575060006101b1565b816001811461050b576002811461051557610531565b60019150506101b1565b60ff84111561052657610526610480565b50506001821b6101b1565b5060208310610133831016604e8410600b8410161715610554575081810a6101b1565b61055e8383610496565b806000190482111561057257610572610480565b029392505050565b600061058960ff8416836104d9565b9392505050565b80820281158282048414176101b1576101b1610480565b808201808211156101b1576101b1610480565b610d99806105c96000396000f3fe608060405234801561001057600080fd5b50600436106101585760003560e01c80635c975abb116100c3578063a217fddf1161007c578063a217fddf146102c4578063a9059cbb146102cc578063d5391393146102df578063d547741f14610306578063dd62ed3e14610319578063e63ab1e91461035257600080fd5b80635c975abb1461025a57806370a082311461026557806379cc67901461028e5780638456cb59146102a157806391d14854146102a957806395d89b41146102bc57600080fd5b80632f2ff15d116101155780632f2ff15d146101f5578063313ce5671461020a57806336568abe146102195780633f4ba83a1461022c57806340c10f191461023457806342966c681461024757600080fd5b806301ffc9a71461015d57806306fdde0314610185578063095ea7b31461019a57806318160ddd146101ad57806323b872dd146101bf578063248a9ca3146101d2575b600080fd5b61017061016b366004610b7c565b610379565b60405190151581526020015b60405180910390f35b61018d6103b0565b60405161017c9190610bad565b6101706101a8366004610c18565b610442565b6002545b60405190815260200161017c565b6101706101cd366004610c42565b61045a565b6101b16101e0366004610c7e565b60009081526006602052604090206001015490565b610208610203366004610c97565b61047e565b005b6040516012815260200161017c565b610208610227366004610c97565b6104a9565b6102086104e1565b610208610242366004610c18565b610516565b610208610255366004610c7e565b61054a565b60055460ff16610170565b6101b1610273366004610cc3565b6001600160a01b031660009081526020819052604090205490565b61020861029c366004610c18565b610554565b61020861056d565b6101706102b7366004610c97565b61059f565b61018d6105ca565b6101b1600081565b6101706102da366004610c18565b6105d9565b6101b17f9f2df0fed2c77648de5860a4cc508cd0818c85b8b8a1ab4ceeef8d981c8956a681565b610208610314366004610c97565b6105e7565b6101b1610327366004610cde565b6001600160a01b03918216600090815260016020908152604080832093909416825291909152205490565b6101b17f65d7a28e3265b37a6474929f336521b332c1681b933f6cb9f3376673440d862a81565b60006001600160e01b03198216637965db0b60e01b14806103aa57506301ffc9a760e01b6001600160e01b03198316145b92915050565b6060600380546103bf90610d08565b80601f01602080910402602001604051908101604052809291908181526020018280546103eb90610d08565b80156104385780601f1061040d57610100808354040283529160200191610438565b820191906000526020600020905b81548152906001019060200180831161041b57829003601f168201915b5050505050905090565b60003361045081858561060c565b5060019392505050565b600033610468858285610619565b610473858585610696565b506001949350505050565b600082815260066020526040902060010154610499816106f5565b6104a383836106ff565b50505050565b6001600160a01b03811633146104d25760405163334bd91960e11b815260040160405180910390fd5b6104dc8282610793565b505050565b7f65d7a28e3265b37a6474929f336521b332c1681b933f6cb9f3376673440d862a61050b816106f5565b610513610800565b50565b7f9f2df0fed2c77648de5860a4cc508cd0818c85b8b8a1ab4ceeef8d981c8956a6610540816106f5565b6104dc8383610852565b6105133382610888565b61055f823383610619565b6105698282610888565b5050565b7f65d7a28e3265b37a6474929f336521b332c1681b933f6cb9f3376673440d862a610597816106f5565b6105136108be565b60009182526006602090815260408084206001600160a01b0393909316845291905290205460ff1690565b6060600480546103bf90610d08565b600033610450818585610696565b600082815260066020526040902060010154610602816106f5565b6104a38383610793565b6104dc83838360016108fb565b6001600160a01b0383811660009081526001602090815260408083209386168352929052205460001981146104a3578181101561068757604051637dc7a0d960e11b81526001600160a01b038416600482015260248101829052604481018390526064015b60405180910390fd5b6104a3848484840360006108fb565b6001600160a01b0383166106c057604051634b637e8f60e11b81526000600482015260240161067e565b6001600160a01b0382166106ea5760405163ec442f0560e01b81526000600482015260240161067e565b6104dc8383836109d0565b6105138133610afa565b600061070b838361059f565b61078b5760008381526006602090815260408083206001600160a01b03861684529091529020805460ff191660011790556107433390565b6001600160a01b0316826001600160a01b0316847f2f8788117e7eff1d82e926ec794901d17c78024a50270940304540a733656f0d60405160405180910390a45060016103aa565b5060006103aa565b600061079f838361059f565b1561078b5760008381526006602090815260408083206001600160a01b0386168085529252808320805460ff1916905551339286917ff6391f5c32d9c69d2a47ea670b442974b53935d1edc7fd64eb21e047a839171b9190a45060016103aa565b610808610b33565b6005805460ff191690557f5db9ee0a495bf2e6ff9c91a7834c1ba4fdd244a5e8aa4e537bd38aeae4b073aa335b6040516001600160a01b03909116815260200160405180910390a1565b6001600160a01b03821661087c5760405163ec442f0560e01b81526000600482015260240161067e565b610569600083836109d0565b6001600160a01b0382166108b257604051634b637e8f60e11b81526000600482015260240161067e565b610569826000836109d0565b6108c6610b58565b6005805460ff191660011790557f62e78cea01bee320cd4e420270b5ea74000d11b0c9f74754ebdbfc544b05a2586108353390565b6001600160a01b0384166109255760405163e602df0560e01b81526000600482015260240161067e565b6001600160a01b03831661094f57604051634a1406b160e11b81526000600482015260240161067e565b6001600160a01b03808516600090815260016020908152604080832093871683529290522082905580156104a357826001600160a01b0316846001600160a01b03167f8c5be1e5ebec7d5bd14f71427d1e84f3dd0314c0f7b2291e5b200ac8c7c3b925846040516109c291815260200190565b60405180910390a350505050565b6001600160a01b0383166109fb5780600260008282546109f09190610d42565b90915550610a6d9050565b6001600160a01b03831660009081526020819052604090205481811015610a4e5760405163391434e360e21b81526001600160a01b0385166004820152602481018290526044810183905260640161067e565b6001600160a01b03841660009081526020819052604090209082900390555b6001600160a01b038216610a8957600280548290039055610aa8565b6001600160a01b03821660009081526020819052604090208054820190555b816001600160a01b0316836001600160a01b03167fddf252ad1be2c89b69c2b068fc378daa952ba7f163c4a11628f55a4df523b3ef83604051610aed91815260200190565b60405180910390a3505050565b610b04828261059f565b6105695760405163e2517d3f60e01b81526001600160a01b03821660048201526024810183905260440161067e565b60055460ff16610b5657604051638dfc202b60e01b815260040160405180910390fd5b565b60055460ff1615610b565760405163d93c066560e01b815260040160405180910390fd5b600060208284031215610b8e57600080fd5b81356001600160e01b031981168114610ba657600080fd5b9392505050565b60006020808352835180602085015260005b81811015610bdb57858101830151858201604001528201610bbf565b506000604082860101526040601f19601f8301168501019250505092915050565b80356001600160a01b0381168114610c1357600080fd5b919050565b60008060408385031215610c2b57600080fd5b610c3483610bfc565b946020939093013593505050565b600080600060608486031215610c5757600080fd5b610c6084610bfc565b9250610c6e60208501610bfc565b9150604084013590509250925092565b600060208284031215610c9057600080fd5b5035919050565b60008060408385031215610caa57600080fd5b82359150610cba60208401610bfc565b90509250929050565b600060208284031215610cd557600080fd5b610ba682610bfc565b60008060408385031215610cf157600080fd5b610cfa83610bfc565b9150610cba60208401610bfc565b600181811c90821680610d1c57607f821691505b602082108103610d3c57634e487b7160e01b600052602260045260246000fd5b50919050565b808201808211156103aa57634e487b7160e01b600052601160045260246000fdfea26469706673582212208388fa832fb7dafb7f6b501be1511080d5ce2eeeccebb1d2241523b8b555ef5364736f6c63430008190033","linkReferences":{}},"methodIdentifiers":{"DEFAULT_ADMIN_ROLE()":"a217fddf","MINTER_ROLE()":"d5391393","PAUSER_ROLE()":"e63ab1e9","allowance(address,address)":"dd62ed3e","approve(address,uint256)":"095ea7b3","balanceOf(address)":"70a08231","burn(uint256)":"42966c68","burnFrom(address,uint256)":"79cc6790","decimals()":"313ce567","getRoleAdmin(bytes32)":"248a9ca3","grantRole(bytes32,address)":"2f2ff15d","hasRole(bytes32,address)":"91d14854","mint(address,uint256)":"40c10f19","name()":"06fdde03","pause()":"8456cb59","paused()":"5c975abb","renounceRole(bytes32,address)":"36568abe","revokeRole(bytes32,address)":"d547741f","supportsInterface(bytes4)":"01ffc9a7","symbol()":"95d89b41","totalSupply()":"18160ddd","transfer(address,uint256)":"a9059cbb","transferFrom(address,address,uint256)":"23b872dd","unpause()":"3f4ba83a"},"id":40}