{"abi":[{"type":"function","name":"charterShip","inputs":[{"name":"shipId","type":"uint256","internalType":"uint256"}],"outputs":[],"stateMutability":"payable"},{"type":"function","name":"closeCharter","inputs":[{"name":"shipId","type":"uint256","internalType":"uint256"},{"name":"reimburseCharterer","type":"bool","internalType":"bool"},{"name":"payOwner","type":"bool","internalType":"bool"},{"name":"releaseOwnerStake","type":"bool","internalType":"bool"}],"outputs":[],"stateMutability":"nonpayable"},{"type":"function","name":"firstValidCharterTimestamp","inputs":[{"name":"","type":"address","internalType":"address"}],"outputs":[{"name":"","type":"uint256","internalType":"uint256"}],"stateMutability":"view"},{"type":"function","name":"listShip","inputs":[{"name":"shipId","type":"uint256","internalType":"uint256"},{"name":"price","type":"uint256","internalType":"uint256"}],"outputs":[],"stateMutability":"payable"},{"type":"function","name":"numValidCharters","inputs":[{"name":"","type":"address","internalType":"address"}],"outputs":[{"name":"","type":"uint256","internalType":"uint256"}],"stateMutability":"view"},{"type":"function","name":"offeredShips","inputs":[{"name":"","type":"uint256","internalType":"uint256"}],"outputs":[{"name":"owner","type":"address","internalType":"address"},{"name":"charterer","type":"address","internalType":"address"},{"name":"price","type":"uint256","internalType":"uint256"},{"name":"forCharter","type":"bool","internalType":"bool"}],"stateMutability":"view"},{"type":"function","name":"stakes","inputs":[{"name":"","type":"address","internalType":"address"}],"outputs":[{"name":"","type":"uint256","internalType":"uint256"}],"stateMutability":"view"},{"type":"event","name":"Reimburse","inputs":[{"name":"charterer","type":"address","indexed":true,"internalType":"address"},{"name":"amount","type":"uint256","indexed":false,"internalType":"uint256"}],"anonymous":false},{"type":"event","name":"ShipChartered","inputs":[{"name":"shipId","type":"uint256","indexed":true,"internalType":"uint256"},{"name":"charterer","type":"address","indexed":true,"internalType":"address"},{"name":"price","type":"uint256","indexed":false,"internalType":"uint256"}],"anonymous":false},{"type":"event","name":"ShipListed","inputs":[{"name":"shipId","type":"uint256","indexed":true,"internalType":"uint256"},{"name":"owner","type":"address","indexed":true,"internalType":"address"},{"name":"price","type":"uint256","indexed":false,"internalType":"uint256"}],"anonymous":false},{"type":"event","name":"StakeLocked","inputs":[{"name":"owner","type":"address","indexed":true,"internalType":"address"},{"name":"amount","type":"uint256","indexed":false,"internalType":"uint256"}],"anonymous":false},{"type":"event","name":"StakeUnlocked","inputs":[{"name":"owner","type":"address","indexed":true,"internalType":"address"},{"name":"amount","type":"uint256","indexed":false,"internalType":"uint256"}],"anonymous":false}],"bytecode":{"object":"0x6080604052348015600f57600080fd5b50610a0d8061001f6000396000f3fe6080604052600436106100705760003560e01c806370bd54d61161004e57806370bd54d6146100f7578063798e2f5014610124578063bb27b52b14610137578063d7087feb1461015757600080fd5b806304e6c55c14610075578063085c73371461008a57806316934fc4146100ca575b600080fd5b6100886100833660046108c2565b6101d6565b005b34801561009657600080fd5b506100b76100a53660046108db565b60026020526000908152604090205481565b6040519081526020015b60405180910390f35b3480156100d657600080fd5b506100b76100e53660046108db565b60036020526000908152604090205481565b34801561010357600080fd5b506100b76101123660046108db565b60016020526000908152604090205481565b61008861013236600461090b565b6102e0565b34801561014357600080fd5b50610088610152366004610942565b61049d565b34801561016357600080fd5b506101a96101723660046108c2565b60006020819052908152604090208054600182015460028301546003909301546001600160a01b0392831693919092169160ff1684565b604080516001600160a01b03958616815294909316602085015291830152151560608201526080016100c1565b6000818152602081905260409020600381015460ff166102345760405162461bcd60e51b815260206004820152601460248201527329b434b8103737ba103337b91031b430b93a32b960611b60448201526064015b60405180910390fd5b806002015434146102795760405162461bcd60e51b815260206004820152600f60248201526e496e636f727265637420707269636560881b604482015260640161022b565b6001810180546001600160a01b0319163390811790915560038201805460ff19169055600282015460405184917f253df8ec6940237c16c8b62de3bb857ae2ec4e073b4f80d5b5228384c53635a6916102d491815260200190565b60405180910390a35050565b600081116103305760405162461bcd60e51b815260206004820152601f60248201527f5072696365206d7573742062652067726561746572207468616e207a65726f00604482015260640161022b565b8034146103935760405162461bcd60e51b815260206004820152602b60248201527f5374616b6520616d6f756e74206d75737420626520657175616c20746f20636860448201526a617274657220707269636560a81b606482015260840161022b565b6040805160808101825233808252600060208084018281528486018781526001606087018181528a8652858552888620975188546001600160a01b03199081166001600160a01b03928316178a5594519289018054909516921691909117909255516002860155516003948501805460ff191691151591909117905591815291905290812080543492906104289084906109a5565b9091555050604051818152339083907f9f0d3e85485d528cb546e866aebbe0a81fa158094b9b6cd84fcbbf8b82a110cf9060200160405180910390a360405134815233907ff5a55f9e5ec51b8ffea32e4a31a915c04c8c8d36223911ae144742ac53c1cf939060200160405180910390a25050565b600084815260208190526040902080546001820154600283015460038401546001600160a01b03938416939092169160ff161561051c5760405162461bcd60e51b815260206004820152601960248201527f53686970206973207374696c6c20666f72206368617274657200000000000000604482015260640161022b565b86801561053157506001600160a01b03821615155b1561061e576000826001600160a01b03168260405160006040518083038185875af1925050503d8060008114610583576040519150601f19603f3d011682016040523d82523d6000602084013e610588565b606091505b50509050806105d95760405162461bcd60e51b815260206004820152601c60248201527f43686172746572207265696d62757273656d656e74206661696c656400000000604482015260640161022b565b826001600160a01b03167fabb9382c3f9ac67dfe9ef9b15126298d48d2652c5fab10d215c59e414caf2b808360405161061491815260200190565b60405180910390a2505b851561077c576001600160a01b0383166000908152600160205260408120805491610648836109be565b90915550506001600160a01b038316600090815260016020819052604090912054900361068b576001600160a01b03831660009081526002602052604090204290555b6000836001600160a01b03168260405160006040518083038185875af1925050503d80600081146106d8576040519150601f19603f3d011682016040523d82523d6000602084013e6106dd565b606091505b50509050806107275760405162461bcd60e51b815260206004820152601660248201527510da185c9d195c881c185e5b595b9d0819985a5b195960521b604482015260640161022b565b6001600160a01b03841660008181526003602090815260408083208054939055518281529192917ffa9b3c14cc825c412c9ed81b3ba365a5b459439403f18829e572ed53a4180f0a910160405180910390a250505b848015610787575085155b1561087d576001600160a01b038316600081815260036020526040808220805490839055905190929083908381818185875af1925050503d80600081146107ea576040519150601f19603f3d011682016040523d82523d6000602084013e6107ef565b606091505b50509050806108375760405162461bcd60e51b815260206004820152601460248201527314dd185ad9481c995b19585cd94819985a5b195960621b604482015260640161022b565b846001600160a01b03167ffa9b3c14cc825c412c9ed81b3ba365a5b459439403f18829e572ed53a4180f0a8360405161087291815260200190565b60405180910390a250505b50505060009485525050506020829052506040812080546001600160a01b0319908116825560018201805490911690556002810191909155600301805460ff19169055565b6000602082840312156108d457600080fd5b5035919050565b6000602082840312156108ed57600080fd5b81356001600160a01b038116811461090457600080fd5b9392505050565b6000806040838503121561091e57600080fd5b50508035926020909101359150565b8035801515811461093d57600080fd5b919050565b6000806000806080858703121561095857600080fd5b843593506109686020860161092d565b92506109766040860161092d565b91506109846060860161092d565b905092959194509250565b634e487b7160e01b600052601160045260246000fd5b808201808211156109b8576109b861098f565b92915050565b6000600182016109d0576109d061098f565b506001019056fea2646970667358221220b6d0b97f0ed1e545d7a38b5ceda575edb30f0ea60e3361743bbdb9eec4041ff564736f6c63430008190033","linkReferences":{}},"methodIdentifiers":{"charterShip(uint256)":"04e6c55c","closeCharter(uint256,bool,bool,bool)":"bb27b52b","firstValidCharterTimestamp(address)":"085c7337","listShip(uint256,uint256)":"798e2f50","numValidCharters(address)":"70bd54d6","offeredShips(uint256)":"d7087feb","stakes(address)":"16934fc4"},"id":20}