{"abi":[{"type":"constructor","inputs":[],"stateMutability":"nonpayable"},{"type":"function","name":"CONTROL_ROLE","inputs":[],"outputs":[{"name":"","type":"bytes32","internalType":"bytes32"}],"stateMutability":"view"},{"type":"function","name":"DEFAULT_ADMIN_ROLE","inputs":[],"outputs":[{"name":"","type":"bytes32","internalType":"bytes32"}],"stateMutability":"view"},{"type":"function","name":"approve","inputs":[{"name":"to","type":"address","internalType":"address"},{"name":"tokenId","type":"uint256","internalType":"uint256"}],"outputs":[],"stateMutability":"nonpayable"},{"type":"function","name":"balanceOf","inputs":[{"name":"owner","type":"address","internalType":"address"}],"outputs":[{"name":"","type":"uint256","internalType":"uint256"}],"stateMutability":"view"},{"type":"function","name":"checkPrivilege","inputs":[{"name":"user","type":"address","internalType":"address"}],"outputs":[{"name":"","type":"bool","internalType":"bool"}],"stateMutability":"view"},{"type":"function","name":"getApproved","inputs":[{"name":"tokenId","type":"uint256","internalType":"uint256"}],"outputs":[{"name":"","type":"address","internalType":"address"}],"stateMutability":"view"},{"type":"function","name":"getRoleAdmin","inputs":[{"name":"role","type":"bytes32","internalType":"bytes32"}],"outputs":[{"name":"","type":"bytes32","internalType":"bytes32"}],"stateMutability":"view"},{"type":"function","name":"grantRole","inputs":[{"name":"role","type":"bytes32","internalType":"bytes32"},{"name":"account","type":"address","internalType":"address"}],"outputs":[],"stateMutability":"nonpayable"},{"type":"function","name":"hasRole","inputs":[{"name":"role","type":"bytes32","internalType":"bytes32"},{"name":"account","type":"address","internalType":"address"}],"outputs":[{"name":"","type":"bool","internalType":"bool"}],"stateMutability":"view"},{"type":"function","name":"isApprovedForAll","inputs":[{"name":"owner","type":"address","internalType":"address"},{"name":"operator","type":"address","internalType":"address"}],"outputs":[{"name":"","type":"bool","internalType":"bool"}],"stateMutability":"view"},{"type":"function","name":"name","inputs":[],"outputs":[{"name":"","type":"string","internalType":"string"}],"stateMutability":"view"},{"type":"function","name":"nextTokenId","inputs":[],"outputs":[{"name":"","type":"uint256","internalType":"uint256"}],"stateMutability":"view"},{"type":"function","name":"ownerOf","inputs":[{"name":"tokenId","type":"uint256","internalType":"uint256"}],"outputs":[{"name":"","type":"address","internalType":"address"}],"stateMutability":"view"},{"type":"function","name":"removePowersellerNFT","inputs":[{"name":"user","type":"address","internalType":"address"}],"outputs":[],"stateMutability":"nonpayable"},{"type":"function","name":"renounceRole","inputs":[{"name":"role","type":"bytes32","internalType":"bytes32"},{"name":"callerConfirmation","type":"address","internalType":"address"}],"outputs":[],"stateMutability":"nonpayable"},{"type":"function","name":"revokeRole","inputs":[{"name":"role","type":"bytes32","internalType":"bytes32"},{"name":"account","type":"address","internalType":"address"}],"outputs":[],"stateMutability":"nonpayable"},{"type":"function","name":"safeMint","inputs":[{"name":"to","type":"address","internalType":"address"}],"outputs":[],"stateMutability":"nonpayable"},{"type":"function","name":"safeTransferFrom","inputs":[{"name":"from","type":"address","internalType":"address"},{"name":"to","type":"address","internalType":"address"},{"name":"tokenId","type":"uint256","internalType":"uint256"}],"outputs":[],"stateMutability":"nonpayable"},{"type":"function","name":"safeTransferFrom","inputs":[{"name":"from","type":"address","internalType":"address"},{"name":"to","type":"address","internalType":"address"},{"name":"tokenId","type":"uint256","internalType":"uint256"},{"name":"data","type":"bytes","internalType":"bytes"}],"outputs":[],"stateMutability":"nonpayable"},{"type":"function","name":"setApprovalForAll","inputs":[{"name":"operator","type":"address","internalType":"address"},{"name":"approved","type":"bool","internalType":"bool"}],"outputs":[],"stateMutability":"nonpayable"},{"type":"function","name":"setShop","inputs":[{"name":"shopAddress","type":"address","internalType":"address"}],"outputs":[],"stateMutability":"nonpayable"},{"type":"function","name":"supportsInterface","inputs":[{"name":"interfaceId","type":"bytes4","internalType":"bytes4"}],"outputs":[{"name":"","type":"bool","internalType":"bool"}],"stateMutability":"view"},{"type":"function","name":"symbol","inputs":[],"outputs":[{"name":"","type":"string","internalType":"string"}],"stateMutability":"view"},{"type":"function","name":"tokenIds","inputs":[{"name":"","type":"address","internalType":"address"}],"outputs":[{"name":"","type":"uint256","internalType":"uint256"}],"stateMutability":"view"},{"type":"function","name":"tokenURI","inputs":[{"name":"tokenId","type":"uint256","internalType":"uint256"}],"outputs":[{"name":"","type":"string","internalType":"string"}],"stateMutability":"view"},{"type":"function","name":"totalPowersellers","inputs":[],"outputs":[{"name":"","type":"uint256","internalType":"uint256"}],"stateMutability":"view"},{"type":"function","name":"transferFrom","inputs":[{"name":"from","type":"address","internalType":"address"},{"name":"to","type":"address","internalType":"address"},{"name":"tokenId","type":"uint256","internalType":"uint256"}],"outputs":[],"stateMutability":"nonpayable"},{"type":"event","name":"Approval","inputs":[{"name":"owner","type":"address","indexed":true,"internalType":"address"},{"name":"approved","type":"address","indexed":true,"internalType":"address"},{"name":"tokenId","type":"uint256","indexed":true,"internalType":"uint256"}],"anonymous":false},{"type":"event","name":"ApprovalForAll","inputs":[{"name":"owner","type":"address","indexed":true,"internalType":"address"},{"name":"operator","type":"address","indexed":true,"internalType":"address"},{"name":"approved","type":"bool","indexed":false,"internalType":"bool"}],"anonymous":false},{"type":"event","name":"PowersellerNFT_Minted","inputs":[{"name":"owner","type":"address","indexed":true,"internalType":"address"},{"name":"tokenId","type":"uint256","indexed":false,"internalType":"uint256"}],"anonymous":false},{"type":"event","name":"PowersellerNFT_Removed","inputs":[{"name":"owner","type":"address","indexed":true,"internalType":"address"},{"name":"tokenId","type":"uint256","indexed":false,"internalType":"uint256"}],"anonymous":false},{"type":"event","name":"RoleAdminChanged","inputs":[{"name":"role","type":"bytes32","indexed":true,"internalType":"bytes32"},{"name":"previousAdminRole","type":"bytes32","indexed":true,"internalType":"bytes32"},{"name":"newAdminRole","type":"bytes32","indexed":true,"internalType":"bytes32"}],"anonymous":false},{"type":"event","name":"RoleGranted","inputs":[{"name":"role","type":"bytes32","indexed":true,"internalType":"bytes32"},{"name":"account","type":"address","indexed":true,"internalType":"address"},{"name":"sender","type":"address","indexed":true,"internalType":"address"}],"anonymous":false},{"type":"event","name":"RoleRevoked","inputs":[{"name":"role","type":"bytes32","indexed":true,"internalType":"bytes32"},{"name":"account","type":"address","indexed":true,"internalType":"address"},{"name":"sender","type":"address","indexed":true,"internalType":"address"}],"anonymous":false},{"type":"event","name":"Transfer","inputs":[{"name":"from","type":"address","indexed":true,"internalType":"address"},{"name":"to","type":"address","indexed":true,"internalType":"address"},{"name":"tokenId","type":"uint256","indexed":true,"internalType":"uint256"}],"anonymous":false},{"type":"error","name":"AccessControlBadConfirmation","inputs":[]},{"type":"error","name":"AccessControlUnauthorizedAccount","inputs":[{"name":"account","type":"address","internalType":"address"},{"name":"neededRole","type":"bytes32","internalType":"bytes32"}]},{"type":"error","name":"ERC721IncorrectOwner","inputs":[{"name":"sender","type":"address","internalType":"address"},{"name":"tokenId","type":"uint256","internalType":"uint256"},{"name":"owner","type":"address","internalType":"address"}]},{"type":"error","name":"ERC721InsufficientApproval","inputs":[{"name":"operator","type":"address","internalType":"address"},{"name":"tokenId","type":"uint256","internalType":"uint256"}]},{"type":"error","name":"ERC721InvalidApprover","inputs":[{"name":"approver","type":"address","internalType":"address"}]},{"type":"error","name":"ERC721InvalidOperator","inputs":[{"name":"operator","type":"address","internalType":"address"}]},{"type":"error","name":"ERC721InvalidOwner","inputs":[{"name":"owner","type":"address","internalType":"address"}]},{"type":"error","name":"ERC721InvalidReceiver","inputs":[{"name":"receiver","type":"address","internalType":"address"}]},{"type":"error","name":"ERC721InvalidSender","inputs":[{"name":"sender","type":"address","internalType":"address"}]},{"type":"error","name":"ERC721NonexistentToken","inputs":[{"name":"tokenId","type":"uint256","internalType":"uint256"}]}],"bytecode":{"object":"0x60806040526007805460ff1916905534801561001a57600080fd5b506040518060400160405280601981526020017f4661696c6c61706f7020506f77657273656c6c6572204e46540000000000000081525060405180604001604052806006815260200165119414d3919560d21b815250816000908161007f9190610216565b50600161008c8282610216565b5050506100bf7f126c7c8716c8f1c7c73a7370c820c7d73a9b4ed0ad633cfce1092f9ff47c8574336100c560201b60201c565b506102d5565b60008281526006602090815260408083206001600160a01b038516845290915281205460ff1661016b5760008381526006602090815260408083206001600160a01b03861684529091529020805460ff191660011790556101233390565b6001600160a01b0316826001600160a01b0316847f2f8788117e7eff1d82e926ec794901d17c78024a50270940304540a733656f0d60405160405180910390a450600161016f565b5060005b92915050565b634e487b7160e01b600052604160045260246000fd5b600181811c9082168061019f57607f821691505b6020821081036101bf57634e487b7160e01b600052602260045260246000fd5b50919050565b601f821115610211576000816000526020600020601f850160051c810160208610156101ee5750805b601f850160051c820191505b8181101561020d578281556001016101fa565b5050505b505050565b81516001600160401b0381111561022f5761022f610175565b6102438161023d845461018b565b846101c5565b602080601f83116001811461027857600084156102605750858301515b600019600386901b1c1916600185901b17855561020d565b600085815260208120601f198616915b828110156102a757888601518255948401946001909101908401610288565b50858210156102c55787850151600019600388901b60f8161c191681555b5050505050600190811b01905550565b61163b806102e46000396000f3fe608060405234801561001057600080fd5b50600436106101a95760003560e01c806375c97027116100f9578063b88d4fde11610097578063d547741f11610071578063d547741f14610395578063d7a1e6ab146103a8578063e985e9c5146103bd578063fc97a303146103d057600080fd5b8063b88d4fde14610361578063c87b56dd1461036f578063ce965f6a1461038257600080fd5b806395d89b41116100d357806395d89b41146103185780639d886a6814610320578063a217fddf1461034b578063a22cb4651461035357600080fd5b806375c97027146102ea57806385aa2e1b146102fd57806391d148541461030557600080fd5b80632f2ff15d1161016657806342842e0e1161014057806342842e0e146102a85780636352211e146102bb57806370a08231146102ce57806375794a3c146102e157600080fd5b80632f2ff15d1461026f57806336568abe1461028257806340d097c31461029557600080fd5b806301ffc9a7146101ae57806306fdde03146101d6578063081812fc146101eb578063095ea7b31461021657806323b872dd1461022b578063248a9ca31461023e575b600080fd5b6101c16101bc366004611222565b6103f0565b60405190151581526020015b60405180910390f35b6101de610410565b6040516101cd919061128f565b6101fe6101f93660046112a2565b6104a2565b6040516001600160a01b0390911681526020016101cd565b6102296102243660046112d7565b6104cb565b005b610229610239366004611301565b610522565b61026161024c3660046112a2565b60009081526006602052604090206001015490565b6040519081526020016101cd565b61022961027d36600461133d565b610576565b61022961029036600461133d565b6105a1565b6102296102a3366004611369565b6105d9565b6102296102b6366004611301565b6106f1565b6101fe6102c93660046112a2565b61070c565b6102616102dc366004611369565b610717565b61026160085481565b6102296102f8366004611369565b61075f565b600954610261565b6101c161031336600461133d565b610853565b6101de61087e565b6101c161032e366004611369565b6001600160a01b03166000908152600a6020526040902054151590565b610261600081565b610229610224366004611384565b6102296102393660046113d6565b6101de61037d3660046112a2565b61088d565b610229610390366004611369565b610902565b6102296103a336600461133d565b610992565b6102616000805160206115e683398151915281565b6101c16103cb3660046114b2565b6109b7565b6102616103de366004611369565b600a6020526000908152604090205481565b60006103fb826109e5565b8061040a575061040a82610a35565b92915050565b60606000805461041f906114dc565b80601f016020809104026020016040519081016040528092919081815260200182805461044b906114dc565b80156104985780601f1061046d57610100808354040283529160200191610498565b820191906000526020600020905b81548152906001019060200180831161047b57829003601f168201915b5050505050905090565b60006104ad82610a5a565b506000828152600460205260409020546001600160a01b031661040a565b60405162461bcd60e51b815260206004820152602160248201527f506f77657273656c6c65724e46542063616e6e6f7420626520617070726f76656044820152601960fa1b60648201526084015b60405180910390fd5b60405162461bcd60e51b8152602060048201526024808201527f506f77657273656c6c65724e46542063616e6e6f74206265207472616e7366656044820152631c9c995960e21b6064820152608401610519565b60008281526006602052604090206001015461059181610a93565b61059b8383610aa0565b50505050565b6001600160a01b03811633146105ca5760405163334bd91960e11b815260040160405180910390fd5b6105d48282610b34565b505050565b6000805160206115e68339815191526105f181610a93565b6001600160a01b0382166000908152600a6020526040902054156106625760405162461bcd60e51b815260206004820152602260248201527f54686973207573657220697320616c7265616479206120506f77657273656c6c60448201526132b960f11b6064820152608401610519565b600880549060006106728361152c565b9091555050600980549060006106878361152c565b90915550506008546001600160a01b0383166000908152600a602052604090208190556106b5908390610ba1565b60085460405190815233907f2de7df0e7effa33b41d553f74a5f2d88223852a2b12783c4067fe3200c0e26f29060200160405180910390a25050565b6105d483838360405180602001604052806000815250610522565b600061040a82610a5a565b60006001600160a01b038216610743576040516322718ad960e21b815260006004820152602401610519565b506001600160a01b031660009081526003602052604090205490565b6000805160206115e683398151915261077781610a93565b6001600160a01b0382166000908152600a602052604081205490036107de5760405162461bcd60e51b815260206004820152601e60248201527f546869732075736572206973206e6f74206120506f77657273656c6c657200006044820152606401610519565b6001600160a01b0382166000908152600a6020526040812080549082905560098054919261080b83611545565b919050555061081981610bbf565b60405181815233907fc47bf5ffa551c8046bb3fe8da6df981fd96f48df8fbc75eb95ba4ccb96d876669060200160405180910390a2505050565b60009182526006602090815260408084206001600160a01b0393909316845291905290205460ff1690565b60606001805461041f906114dc565b606061089882610a5a565b5060006108b060408051602081019091526000815290565b905060008151116108d057604051806020016040528060008152506108fb565b806108da84610bfa565b6040516020016108eb92919061155c565b6040516020818303038152906040525b9392505050565b6000805160206115e683398151915261091a81610a93565b60075460ff161561096d5760405162461bcd60e51b815260206004820152601860248201527f53686f70206164647265737320616c72656164792073657400000000000000006044820152606401610519565b6007805460ff191660011790556105d46000805160206115e683398151915283610aa0565b6000828152600660205260409020600101546109ad81610a93565b61059b8383610b34565b6001600160a01b03918216600090815260056020908152604080832093909416825291909152205460ff1690565b60006001600160e01b031982166380ac58cd60e01b1480610a1657506001600160e01b03198216635b5e139f60e01b145b8061040a57506301ffc9a760e01b6001600160e01b031983161461040a565b60006001600160e01b03198216637965db0b60e01b148061040a575061040a826109e5565b6000818152600260205260408120546001600160a01b03168061040a57604051637e27328960e01b815260048101849052602401610519565b610a9d8133610c8d565b50565b6000610aac8383610853565b610b2c5760008381526006602090815260408083206001600160a01b03861684529091529020805460ff19166001179055610ae43390565b6001600160a01b0316826001600160a01b0316847f2f8788117e7eff1d82e926ec794901d17c78024a50270940304540a733656f0d60405160405180910390a450600161040a565b50600061040a565b6000610b408383610853565b15610b2c5760008381526006602090815260408083206001600160a01b0386168085529252808320805460ff1916905551339286917ff6391f5c32d9c69d2a47ea670b442974b53935d1edc7fd64eb21e047a839171b9190a450600161040a565b610bbb828260405180602001604052806000815250610cc6565b5050565b6000610bce6000836000610cdd565b90506001600160a01b038116610bbb57604051637e27328960e01b815260048101839052602401610519565b60606000610c0783610dd6565b600101905060008167ffffffffffffffff811115610c2757610c276113c0565b6040519080825280601f01601f191660200182016040528015610c51576020820181803683370190505b5090508181016020015b600019016f181899199a1a9b1b9c1cb0b131b232b360811b600a86061a8153600a8504945084610c5b57509392505050565b610c978282610853565b610bbb5760405163e2517d3f60e01b81526001600160a01b038216600482015260248101839052604401610519565b610cd08383610eae565b6105d46000848484610f13565b6000828152600260205260408120546001600160a01b0390811690831615610d0a57610d0a81848661103c565b6001600160a01b03811615610d4857610d276000856000806110a0565b6001600160a01b038116600090815260036020526040902080546000190190555b6001600160a01b03851615610d77576001600160a01b0385166000908152600360205260409020805460010190555b60008481526002602052604080822080546001600160a01b0319166001600160a01b0389811691821790925591518793918516917fddf252ad1be2c89b69c2b068fc378daa952ba7f163c4a11628f55a4df523b3ef91a4949350505050565b60008072184f03e93ff9f4daa797ed6e38ed64bf6a1f0160401b8310610e155772184f03e93ff9f4daa797ed6e38ed64bf6a1f0160401b830492506040015b6d04ee2d6d415b85acef81000000008310610e41576d04ee2d6d415b85acef8100000000830492506020015b662386f26fc100008310610e5f57662386f26fc10000830492506010015b6305f5e1008310610e77576305f5e100830492506008015b6127108310610e8b57612710830492506004015b60648310610e9d576064830492506002015b600a831061040a5760010192915050565b6001600160a01b038216610ed857604051633250574960e11b815260006004820152602401610519565b6000610ee683836000610cdd565b90506001600160a01b038116156105d4576040516339e3563760e11b815260006004820152602401610519565b6001600160a01b0383163b1561059b57604051630a85bd0160e11b81526001600160a01b0384169063150b7a0290610f5590339088908790879060040161158b565b6020604051808303816000875af1925050508015610f90575060408051601f3d908101601f19168201909252610f8d918101906115c8565b60015b610ff9573d808015610fbe576040519150601f19603f3d011682016040523d82523d6000602084013e610fc3565b606091505b508051600003610ff157604051633250574960e11b81526001600160a01b0385166004820152602401610519565b805181602001fd5b6001600160e01b03198116630a85bd0160e11b1461103557604051633250574960e11b81526001600160a01b0385166004820152602401610519565b5050505050565b6110478383836111a6565b6105d4576001600160a01b03831661107557604051637e27328960e01b815260048101829052602401610519565b60405163177e802f60e01b81526001600160a01b038316600482015260248101829052604401610519565b80806110b457506001600160a01b03821615155b156111765760006110c484610a5a565b90506001600160a01b038316158015906110f05750826001600160a01b0316816001600160a01b031614155b8015611103575061110181846109b7565b155b1561112c5760405163a9fbf51f60e01b81526001600160a01b0384166004820152602401610519565b81156111745783856001600160a01b0316826001600160a01b03167f8c5be1e5ebec7d5bd14f71427d1e84f3dd0314c0f7b2291e5b200ac8c7c3b92560405160405180910390a45b505b5050600090815260046020526040902080546001600160a01b0319166001600160a01b0392909216919091179055565b60006001600160a01b038316158015906112045750826001600160a01b0316846001600160a01b031614806111e057506111e084846109b7565b8061120457506000828152600460205260409020546001600160a01b038481169116145b949350505050565b6001600160e01b031981168114610a9d57600080fd5b60006020828403121561123457600080fd5b81356108fb8161120c565b60005b8381101561125a578181015183820152602001611242565b50506000910152565b6000815180845261127b81602086016020860161123f565b601f01601f19169290920160200192915050565b6020815260006108fb6020830184611263565b6000602082840312156112b457600080fd5b5035919050565b80356001600160a01b03811681146112d257600080fd5b919050565b600080604083850312156112ea57600080fd5b6112f3836112bb565b946020939093013593505050565b60008060006060848603121561131657600080fd5b61131f846112bb565b925061132d602085016112bb565b9150604084013590509250925092565b6000806040838503121561135057600080fd5b82359150611360602084016112bb565b90509250929050565b60006020828403121561137b57600080fd5b6108fb826112bb565b6000806040838503121561139757600080fd5b6113a0836112bb565b9150602083013580151581146113b557600080fd5b809150509250929050565b634e487b7160e01b600052604160045260246000fd5b600080600080608085870312156113ec57600080fd5b6113f5856112bb565b9350611403602086016112bb565b925060408501359150606085013567ffffffffffffffff8082111561142757600080fd5b818701915087601f83011261143b57600080fd5b81358181111561144d5761144d6113c0565b604051601f8201601f19908116603f01168101908382118183101715611475576114756113c0565b816040528281528a602084870101111561148e57600080fd5b82602086016020830137600060208483010152809550505050505092959194509250565b600080604083850312156114c557600080fd5b6114ce836112bb565b9150611360602084016112bb565b600181811c908216806114f057607f821691505b60208210810361151057634e487b7160e01b600052602260045260246000fd5b50919050565b634e487b7160e01b600052601160045260246000fd5b60006001820161153e5761153e611516565b5060010190565b60008161155457611554611516565b506000190190565b6000835161156e81846020880161123f565b83519083019061158281836020880161123f565b01949350505050565b6001600160a01b03858116825284166020820152604081018390526080606082018190526000906115be90830184611263565b9695505050505050565b6000602082840312156115da57600080fd5b81516108fb8161120c56fe126c7c8716c8f1c7c73a7370c820c7d73a9b4ed0ad633cfce1092f9ff47c8574a264697066735822122098b6021f65dc464a3e181a0a0ef993c6a683f636acc2e406ba6641cd376aa24564736f6c63430008190033","linkReferences":{}},"methodIdentifiers":{"CONTROL_ROLE()":"d7a1e6ab","DEFAULT_ADMIN_ROLE()":"a217fddf","approve(address,uint256)":"095ea7b3","balanceOf(address)":"70a08231","checkPrivilege(address)":"9d886a68","getApproved(uint256)":"081812fc","getRoleAdmin(bytes32)":"248a9ca3","grantRole(bytes32,address)":"2f2ff15d","hasRole(bytes32,address)":"91d14854","isApprovedForAll(address,address)":"e985e9c5","name()":"06fdde03","nextTokenId()":"75794a3c","ownerOf(uint256)":"6352211e","removePowersellerNFT(address)":"75c97027","renounceRole(bytes32,address)":"36568abe","revokeRole(bytes32,address)":"d547741f","safeMint(address)":"40d097c3","safeTransferFrom(address,address,uint256)":"42842e0e","safeTransferFrom(address,address,uint256,bytes)":"b88d4fde","setApprovalForAll(address,bool)":"a22cb465","setShop(address)":"ce965f6a","supportsInterface(bytes4)":"01ffc9a7","symbol()":"95d89b41","tokenIds(address)":"fc97a303","tokenURI(uint256)":"c87b56dd","totalPowersellers()":"85aa2e1b","transferFrom(address,address,uint256)":"23b872dd"},"id":41}