{"abi":[{"type":"constructor","inputs":[{"name":"magicWord","type":"string","internalType":"string"},{"name":"nftAddress","type":"address","internalType":"address"},{"name":"fptAddress","type":"address","internalType":"address"}],"stateMutability":"nonpayable"},{"type":"function","name":"CONTROL_ROLE","inputs":[],"outputs":[{"name":"","type":"bytes32","internalType":"bytes32"}],"stateMutability":"view"},{"type":"function","name":"DEFAULT_ADMIN_ROLE","inputs":[],"outputs":[{"name":"","type":"bytes32","internalType":"bytes32"}],"stateMutability":"view"},{"type":"function","name":"DEFAULT_QUORUM","inputs":[],"outputs":[{"name":"","type":"uint256","internalType":"uint256"}],"stateMutability":"view"},{"type":"function","name":"THRESHOLD","inputs":[],"outputs":[{"name":"","type":"uint256","internalType":"uint256"}],"stateMutability":"view"},{"type":"function","name":"cancelDispute","inputs":[{"name":"disputeId","type":"uint256","internalType":"uint256"}],"outputs":[],"stateMutability":"nonpayable"},{"type":"function","name":"castVote","inputs":[{"name":"disputeId","type":"uint256","internalType":"uint256"},{"name":"vote","type":"bool","internalType":"bool"}],"outputs":[],"stateMutability":"nonpayable"},{"type":"function","name":"checkLottery","inputs":[{"name":"disputeId","type":"uint256","internalType":"uint256"}],"outputs":[],"stateMutability":"nonpayable"},{"type":"function","name":"coolNFTContract","inputs":[],"outputs":[{"name":"","type":"address","internalType":"contract IFP_CoolNFT"}],"stateMutability":"view"},{"type":"function","name":"disputeResult","inputs":[{"name":"","type":"uint256","internalType":"uint256"}],"outputs":[{"name":"","type":"uint8","internalType":"enum FP_DAO.Vote"}],"stateMutability":"view"},{"type":"function","name":"disputes","inputs":[{"name":"","type":"uint256","internalType":"uint256"}],"outputs":[{"name":"itemId","type":"uint256","internalType":"uint256"},{"name":"buyerReasoning","type":"string","internalType":"string"},{"name":"sellerReasoning","type":"string","internalType":"string"},{"name":"votesFor","type":"uint256","internalType":"uint256"},{"name":"votesAgainst","type":"uint256","internalType":"uint256"},{"name":"totalVoters","type":"uint256","internalType":"uint256"}],"stateMutability":"view"},{"type":"function","name":"endDispute","inputs":[{"name":"disputeId","type":"uint256","internalType":"uint256"}],"outputs":[],"stateMutability":"nonpayable"},{"type":"function","name":"fptContract","inputs":[],"outputs":[{"name":"","type":"address","internalType":"contract IERC20"}],"stateMutability":"view"},{"type":"function","name":"getRoleAdmin","inputs":[{"name":"role","type":"bytes32","internalType":"bytes32"}],"outputs":[{"name":"","type":"bytes32","internalType":"bytes32"}],"stateMutability":"view"},{"type":"function","name":"grantRole","inputs":[{"name":"role","type":"bytes32","internalType":"bytes32"},{"name":"account","type":"address","internalType":"address"}],"outputs":[],"stateMutability":"nonpayable"},{"type":"function","name":"hasCheckedLottery","inputs":[{"name":"","type":"address","internalType":"address"},{"name":"","type":"uint256","internalType":"uint256"}],"outputs":[{"name":"","type":"bool","internalType":"bool"}],"stateMutability":"view"},{"type":"function","name":"hasRole","inputs":[{"name":"role","type":"bytes32","internalType":"bytes32"},{"name":"account","type":"address","internalType":"address"}],"outputs":[{"name":"","type":"bool","internalType":"bool"}],"stateMutability":"view"},{"type":"function","name":"hasVoted","inputs":[{"name":"","type":"address","internalType":"address"},{"name":"","type":"uint256","internalType":"uint256"}],"outputs":[{"name":"","type":"uint8","internalType":"enum FP_DAO.Vote"}],"stateMutability":"view"},{"type":"function","name":"newDispute","inputs":[{"name":"itemId","type":"uint256","internalType":"uint256"},{"name":"buyerReasoning","type":"string","internalType":"string"},{"name":"sellerReasoning","type":"string","internalType":"string"}],"outputs":[{"name":"","type":"uint256","internalType":"uint256"}],"stateMutability":"nonpayable"},{"type":"function","name":"nextDisputeId","inputs":[],"outputs":[{"name":"","type":"uint256","internalType":"uint256"}],"stateMutability":"view"},{"type":"function","name":"queryDispute","inputs":[{"name":"disputeId","type":"uint256","internalType":"uint256"}],"outputs":[{"name":"","type":"tuple","internalType":"struct FP_DAO.Dispute","components":[{"name":"itemId","type":"uint256","internalType":"uint256"},{"name":"buyerReasoning","type":"string","internalType":"string"},{"name":"sellerReasoning","type":"string","internalType":"string"},{"name":"votesFor","type":"uint256","internalType":"uint256"},{"name":"votesAgainst","type":"uint256","internalType":"uint256"},{"name":"totalVoters","type":"uint256","internalType":"uint256"}]}],"stateMutability":"view"},{"type":"function","name":"queryDisputeResult","inputs":[{"name":"disputeId","type":"uint256","internalType":"uint256"}],"outputs":[{"name":"","type":"uint8","internalType":"enum FP_DAO.Vote"}],"stateMutability":"view"},{"type":"function","name":"quorum","inputs":[],"outputs":[{"name":"","type":"uint256","internalType":"uint256"}],"stateMutability":"view"},{"type":"function","name":"renounceRole","inputs":[{"name":"role","type":"bytes32","internalType":"bytes32"},{"name":"callerConfirmation","type":"address","internalType":"address"}],"outputs":[],"stateMutability":"nonpayable"},{"type":"function","name":"revokeRole","inputs":[{"name":"role","type":"bytes32","internalType":"bytes32"},{"name":"account","type":"address","internalType":"address"}],"outputs":[],"stateMutability":"nonpayable"},{"type":"function","name":"setShop","inputs":[{"name":"shopAddress","type":"address","internalType":"address"}],"outputs":[],"stateMutability":"nonpayable"},{"type":"function","name":"shopContract","inputs":[],"outputs":[{"name":"","type":"address","internalType":"contract IFP_Shop"}],"stateMutability":"view"},{"type":"function","name":"supportsInterface","inputs":[{"name":"interfaceId","type":"bytes4","internalType":"bytes4"}],"outputs":[{"name":"","type":"bool","internalType":"bool"}],"stateMutability":"view"},{"type":"function","name":"updateConfig","inputs":[{"name":"magicWord","type":"string","internalType":"string"},{"name":"newMagicWord","type":"string","internalType":"string"},{"name":"newShop","type":"address","internalType":"address"},{"name":"newNft","type":"address","internalType":"address"}],"outputs":[],"stateMutability":"nonpayable"},{"type":"event","name":"AwardNFT","inputs":[{"name":"user","type":"address","indexed":false,"internalType":"address"}],"anonymous":false},{"type":"event","name":"EndDispute","inputs":[{"name":"disputeId","type":"uint256","indexed":false,"internalType":"uint256"},{"name":"itemId","type":"uint256","indexed":false,"internalType":"uint256"}],"anonymous":false},{"type":"event","name":"NewConfig","inputs":[{"name":"shop","type":"address","indexed":false,"internalType":"address"},{"name":"nft","type":"address","indexed":false,"internalType":"address"}],"anonymous":false},{"type":"event","name":"NewDispute","inputs":[{"name":"disputeId","type":"uint256","indexed":false,"internalType":"uint256"},{"name":"itemId","type":"uint256","indexed":false,"internalType":"uint256"}],"anonymous":false},{"type":"event","name":"RoleAdminChanged","inputs":[{"name":"role","type":"bytes32","indexed":true,"internalType":"bytes32"},{"name":"previousAdminRole","type":"bytes32","indexed":true,"internalType":"bytes32"},{"name":"newAdminRole","type":"bytes32","indexed":true,"internalType":"bytes32"}],"anonymous":false},{"type":"event","name":"RoleGranted","inputs":[{"name":"role","type":"bytes32","indexed":true,"internalType":"bytes32"},{"name":"account","type":"address","indexed":true,"internalType":"address"},{"name":"sender","type":"address","indexed":true,"internalType":"address"}],"anonymous":false},{"type":"event","name":"RoleRevoked","inputs":[{"name":"role","type":"bytes32","indexed":true,"internalType":"bytes32"},{"name":"account","type":"address","indexed":true,"internalType":"address"},{"name":"sender","type":"address","indexed":true,"internalType":"address"}],"anonymous":false},{"type":"event","name":"VoteCasted","inputs":[{"name":"disputeId","type":"uint256","indexed":false,"internalType":"uint256"},{"name":"user","type":"address","indexed":false,"internalType":"address"}],"anonymous":false},{"type":"error","name":"AccessControlBadConfirmation","inputs":[]},{"type":"error","name":"AccessControlUnauthorizedAccount","inputs":[{"name":"account","type":"address","internalType":"address"},{"name":"neededRole","type":"bytes32","internalType":"bytes32"}]},{"type":"error","name":"ZeroAddress","inputs":[]}],"bytecode":{"object":"0x60a06040526001805460ff1916905534801561001a57600080fd5b50604051611fbf380380611fbf83398101604081905261003991610175565b600761004584826102ea565b506100707f126c7c8716c8f1c7c73a7370c820c7d73a9b4ed0ad633cfce1092f9ff47c857433610097565b50600980546001600160a01b0319166001600160a01b0393841617905516608052506103a9565b6000828152602081815260408083206001600160a01b038516845290915281205460ff16610139576000838152602081815260408083206001600160a01b03861684529091529020805460ff191660011790556100f13390565b6001600160a01b0316826001600160a01b0316847f2f8788117e7eff1d82e926ec794901d17c78024a50270940304540a733656f0d60405160405180910390a450600161013d565b5060005b92915050565b634e487b7160e01b600052604160045260246000fd5b80516001600160a01b038116811461017057600080fd5b919050565b60008060006060848603121561018a57600080fd5b83516001600160401b03808211156101a157600080fd5b818601915086601f8301126101b557600080fd5b8151818111156101c7576101c7610143565b604051601f8201601f19908116603f011681019083821181831017156101ef576101ef610143565b8160405282815260209350898484870101111561020b57600080fd5b600091505b8282101561022d5784820184015181830185015290830190610210565b6000848483010152809750505050610246818701610159565b9350505061025660408501610159565b90509250925092565b600181811c9082168061027357607f821691505b60208210810361029357634e487b7160e01b600052602260045260246000fd5b50919050565b601f8211156102e5576000816000526020600020601f850160051c810160208610156102c25750805b601f850160051c820191505b818110156102e1578281556001016102ce565b5050505b505050565b81516001600160401b0381111561030357610303610143565b61031781610311845461025f565b84610299565b602080601f83116001811461034c57600084156103345750858301515b600019600386901b1c1916600185901b1785556102e1565b600085815260208120601f198616915b8281101561037b5788860151825594840194600190910190840161035c565b50858210156103995787850151600019600388901b60f8161c191681555b5050505050600190811b01905550565b608051611bf46103cb600039600081816103da015261117b0152611bf46000f3fe608060405234801561001057600080fd5b50600436106101c45760003560e01c8063564a565d116100f9578063d283f0af11610097578063df02935c11610071578063df02935c14610424578063f43acb5214610437578063fdd1f7541461044a578063fe253de21461046d57600080fd5b8063d283f0af146103d5578063d547741f146103fc578063d7a1e6ab1461040f57600080fd5b806391d14854116100d357806391d148541461039f5780639a341b9f146103b2578063a217fddf146103ba578063ce965f6a146103c257600080fd5b8063564a565d1461035f57806359a716ad14610384578063785ffb371461039757600080fd5b8063248a9ca31161016657806336568abe1161014057806336568abe146102db5780633c1d543e146102ee578063425458251461031e5780635187b7a01461034c57600080fd5b8063248a9ca31461029257806324ffa411146102b55780632f2ff15d146102c857600080fd5b8063116a0db0116101a2578063116a0db01461023357806315373e3d146102615780631703a01814610276578063237e3feb1461027f57600080fd5b806301ffc9a7146101c957806309090a51146101f15780630db399341461021c575b600080fd5b6101dc6101d7366004611508565b61048d565b60405190151581526020015b60405180910390f35b600854610204906001600160a01b031681565b6040516001600160a01b0390911681526020016101e8565b61022560035481565b6040519081526020016101e8565b6101dc610241366004611555565b600660209081526000928352604080842090915290825290205460ff1681565b61027461026f36600461157f565b6104c4565b005b610225600a5481565b600954610204906001600160a01b031681565b6102256102a03660046115b4565b60009081526020819052604090206001015490565b6102256102c3366004611616565b61067d565b6102746102d6366004611690565b6107e9565b6102746102e9366004611690565b610814565b6103116102fc3660046115b4565b60009081526005602052604090205460ff1690565b6040516101e891906116d2565b61031161032c366004611555565b600460209081526000928352604080842090915290825290205460ff1681565b61027461035a3660046115b4565b61084c565b61037261036d3660046115b4565b6109d6565b6040516101e896959493929190611740565b61027461039236600461178a565b610b1b565b610225600a81565b6101dc6103ad366004611690565b610c5e565b610225606481565b610225600081565b6102746103d036600461181a565b610c87565b6102047f000000000000000000000000000000000000000000000000000000000000000081565b61027461040a366004611690565b610d31565b610225600080516020611b9f83398151915281565b6102746104323660046115b4565b610d56565b6102746104453660046115b4565b610dea565b6103116104583660046115b4565b60056020526000908152604090205460ff1681565b61048061047b3660046115b4565b610faf565b6040516101e89190611835565b60006001600160e01b03198216637965db0b60e01b14806104be57506301ffc9a760e01b6001600160e01b03198316145b92915050565b33600090815260046020908152604080832085845290915281205460ff1660028111156104f3576104f36116bc565b1461053e5760405162461bcd60e51b8152602060048201526016602482015275165bdd481a185d9948185b1c9958591e481d9bdd195960521b60448201526064015b60405180910390fd5b600061054933611159565b90506000811161059b5760405162461bcd60e51b815260206004820152601860248201527f596f752068617665206e6f20766f74696e6720706f77657200000000000000006044820152606401610535565b81156105f157600083815260026020526040812060030180548392906105c29084906118b9565b90915550503360009081526004602090815260408083208684529091529020805460ff19166001179055610618565b600083815260026020526040812060040180548392906106129084906118b9565b90915550505b600083815260026020526040812060050180546001929061063a9084906118b9565b9091555050604080518481523360208201527fd8d46ecf72f6103ff400e47d1b5fdfe248d4ca34a4acd39f63fbe903c8f7e7bd91015b60405180910390a1505050565b6000600080516020611b9f833981519152610697816111e8565b600380549060019060006106ab83856118b9565b925050819055506040518060c0016040528089815260200188888080601f016020809104026020016040519081016040528093929190818152602001838380828437600092019190915250505090825250604080516020601f8901819004810282018101909252878152918101919088908890819084018382808284376000920182905250938552505050602080830182905260408084018390526060909301829052848252600281529190208251815590820151600182019061076f908261196c565b5060408201516002820190610784908261196c565b50606082015160038201556080820151600482015560a09091015160059091015560408051828152602081018a90527f98d85359d4c56c7eaf2486712c329156c582a48e60b4188ba13a7afa45cfff32910160405180910390a1979650505050505050565b600082815260208190526040902060010154610804816111e8565b61080e83836111f5565b50505050565b6001600160a01b038116331461083d5760405163334bd91960e11b815260040160405180910390fd5b6108478282611287565b505050565b600a5460008281526002602052604090206005015410156108a35760405162461bcd60e51b81526020600482015260116024820152704e6f7420656e6f75676820766f7465727360781b6044820152606401610535565b60008181526002602052604090208054600482015460039092015490911015610931576000828152600260205260408120818155906108e560018301826114ba565b6108f36002830160006114ba565b5060006003820181905560048201819055600590910155610913816112f2565b6000828152600560205260409020805460ff19166001179055610998565b60008281526002602052604081208181559061095060018301826114ba565b61095e6002830160006114ba565b506000600382018190556004820181905560059091015561097e81611354565b6000828152600560205260409020805460ff191660021790555b60408051838152602081018390527f5f65ba4221e242e33b7e6330ca9b57400e8d026cf0fd6d7761b8f1be8fbf293891015b60405180910390a15050565b600260205260009081526040902080546001820180549192916109f8906118e2565b80601f0160208091040260200160405190810160405280929190818152602001828054610a24906118e2565b8015610a715780601f10610a4657610100808354040283529160200191610a71565b820191906000526020600020905b815481529060010190602001808311610a5457829003601f168201915b505050505090806002018054610a86906118e2565b80601f0160208091040260200160405190810160405280929190818152602001828054610ab2906118e2565b8015610aff5780601f10610ad457610100808354040283529160200191610aff565b820191906000526020600020905b815481529060010190602001808311610ae257829003601f168201915b5050505050908060030154908060040154908060050154905086565b85856007604051602001610b2f9190611a2c565b604051602081830303815290604052805190602001208282604051602001610b58929190611aa2565b6040516020818303038152906040528051906020012014610baa5760405162461bcd60e51b815260206004820152600c60248201526b155b985d5d1a1bdc9a5e995960a21b6044820152606401610535565b8380610bc25760405163d92e233d60e01b8152600481fd5b8380610bda5760405163d92e233d60e01b8152600481fd5b6007610be7888a83611ab2565b50600880546001600160a01b038881166001600160a01b03199283168117909355600980549189169190921681179091556040805192835260208301919091527f3f97ee5bfc1c5fb7ed7777025ccb32eaff67bb248b9385905fee860c8e9873ae910160405180910390a150505050505050505050565b6000918252602082815260408084206001600160a01b0393909316845291905290205460ff1690565b600080516020611b9f833981519152610c9f816111e8565b60015460ff1615610cf25760405162461bcd60e51b815260206004820152601860248201527f53686f70206164647265737320616c72656164792073657400000000000000006044820152606401610535565b6001805460ff191681179055600880546001600160a01b0319166001600160a01b038416179055610847600080516020611b9f833981519152836111f5565b600082815260208190526040902060010154610d4c816111e8565b61080e8383611287565b600080516020611b9f833981519152610d6e816111e8565b6000828152600260205260408120805482825591610d8f60018301826114ba565b610d9d6002830160006114ba565b506000600382018190556004820181905560059091015560408051848152602081018390527f5f65ba4221e242e33b7e6330ca9b57400e8d026cf0fd6d7761b8f1be8fbf29389101610670565b336000818152600660209081526040808320858452909152902054829060ff1615610e7d5760405162461bcd60e51b815260206004820152603a60248201527f557365722063616e6e6f7420636865636b20746865206c6f7474657279206d6f60448201527f7265207468616e20312074696d652070657220646973707574650000000000006064820152608401610535565b33600090815260046020908152604080832086845290915281205460ff166002811115610eac57610eac6116bc565b03610eec5760405162461bcd60e51b815260206004820152601060248201526f55736572206469646e277420766f746560801b6044820152606401610535565b3360008181526006602090815260408083208784528252808320805460ff19166001179055928252600481528282208683529052205460ff166002811115610f3657610f366116bc565b60008481526005602052604090205460ff166002811115610f5957610f596116bc565b03610f675761084733611385565b60405162461bcd60e51b815260206004820152601d60248201527f5573657220766f74656420666f72207468652077726f6e6720736964650000006044820152606401610535565b610fe86040518060c001604052806000815260200160608152602001606081526020016000815260200160008152602001600081525090565b600260008381526020019081526020016000206040518060c001604052908160008201548152602001600182018054611020906118e2565b80601f016020809104026020016040519081016040528092919081815260200182805461104c906118e2565b80156110995780601f1061106e57610100808354040283529160200191611099565b820191906000526020600020905b81548152906001019060200180831161107c57829003601f168201915b505050505081526020016002820180546110b2906118e2565b80601f01602080910402602001604051908101604052809291908181526020018280546110de906118e2565b801561112b5780601f106111005761010080835404028352916020019161112b565b820191906000526020600020905b81548152906001019060200180831161110e57829003601f168201915b5050505050815260200160038201548152602001600482015481526020016005820154815250509050919050565b6040516370a0823160e01b81526001600160a01b0382811660048301526000917f0000000000000000000000000000000000000000000000000000000000000000909116906370a0823190602401602060405180830381865afa1580156111c4573d6000803e3d6000fd5b505050506040513d601f19601f820116820180604052508101906104be9190611b72565b6111f2813361147d565b50565b60006112018383610c5e565b61127f576000838152602081815260408083206001600160a01b03861684529091529020805460ff191660011790556112373390565b6001600160a01b0316826001600160a01b0316847f2f8788117e7eff1d82e926ec794901d17c78024a50270940304540a733656f0d60405160405180910390a45060016104be565b5060006104be565b60006112938383610c5e565b1561127f576000838152602081815260408083206001600160a01b0386168085529252808320805460ff1916905551339286917ff6391f5c32d9c69d2a47ea670b442974b53935d1edc7fd64eb21e047a839171b9190a45060016104be565b60085460405163223ed1dd60e01b8152600481018390526001600160a01b039091169063223ed1dd906024015b600060405180830381600087803b15801561133957600080fd5b505af115801561134d573d6000803e3d6000fd5b5050505050565b60085460405163028c3dbd60e51b8152600481018390526001600160a01b0390911690635187b7a09060240161131f565b6000611392600143611b8b565b60408051914060208301524290820152606083811b6bffffffffffffffffffffffff1916908201526074016040516020818303038152906040528051906020012060001c60ff169050600a81101561144457600954604051633a727f1b60e11b81526001600160a01b038481166004830152909116906374e4fe3690602401600060405180830381600087803b15801561142b57600080fd5b505af115801561143f573d6000803e3d6000fd5b505050505b6040516001600160a01b03831681527f50a76bf3b663b76d774ece1923da131b8e960e3ca9442ab303d45428b87743a1906020016109ca565b6114878282610c5e565b6114b65760405163e2517d3f60e01b81526001600160a01b038216600482015260248101839052604401610535565b5050565b5080546114c6906118e2565b6000825580601f106114d6575050565b601f0160209004906000526020600020908101906111f291905b8082111561150457600081556001016114f0565b5090565b60006020828403121561151a57600080fd5b81356001600160e01b03198116811461153257600080fd5b9392505050565b80356001600160a01b038116811461155057600080fd5b919050565b6000806040838503121561156857600080fd5b61157183611539565b946020939093013593505050565b6000806040838503121561159257600080fd5b82359150602083013580151581146115a957600080fd5b809150509250929050565b6000602082840312156115c657600080fd5b5035919050565b60008083601f8401126115df57600080fd5b50813567ffffffffffffffff8111156115f757600080fd5b60208301915083602082850101111561160f57600080fd5b9250929050565b60008060008060006060868803121561162e57600080fd5b85359450602086013567ffffffffffffffff8082111561164d57600080fd5b61165989838a016115cd565b9096509450604088013591508082111561167257600080fd5b5061167f888289016115cd565b969995985093965092949392505050565b600080604083850312156116a357600080fd5b823591506116b360208401611539565b90509250929050565b634e487b7160e01b600052602160045260246000fd5b60208101600383106116f457634e487b7160e01b600052602160045260246000fd5b91905290565b6000815180845260005b8181101561172057602081850181015186830182015201611704565b506000602082860101526020601f19601f83011685010191505092915050565b86815260c06020820152600061175960c08301886116fa565b828103604084015261176b81886116fa565b60608401969096525050608081019290925260a0909101529392505050565b600080600080600080608087890312156117a357600080fd5b863567ffffffffffffffff808211156117bb57600080fd5b6117c78a838b016115cd565b909850965060208901359150808211156117e057600080fd5b506117ed89828a016115cd565b9095509350611800905060408801611539565b915061180e60608801611539565b90509295509295509295565b60006020828403121561182c57600080fd5b61153282611539565b60208152815160208201526000602083015160c0604084015261185b60e08401826116fa565b90506040840151601f1984830301606085015261187882826116fa565b91505060608401516080840152608084015160a084015260a084015160c08401528091505092915050565b634e487b7160e01b600052601160045260246000fd5b808201808211156104be576104be6118a3565b634e487b7160e01b600052604160045260246000fd5b600181811c908216806118f657607f821691505b60208210810361191657634e487b7160e01b600052602260045260246000fd5b50919050565b601f821115610847576000816000526020600020601f850160051c810160208610156119455750805b601f850160051c820191505b8181101561196457828155600101611951565b505050505050565b815167ffffffffffffffff811115611986576119866118cc565b61199a8161199484546118e2565b8461191c565b602080601f8311600181146119cf57600084156119b75750858301515b600019600386901b1c1916600185901b178555611964565b600085815260208120601f198616915b828110156119fe578886015182559484019460019091019084016119df565b5085821015611a1c5787850151600019600388901b60f8161c191681555b5050505050600190811b01905550565b6000808354611a3a816118e2565b60018281168015611a525760018114611a6757611a96565b60ff1984168752821515830287019450611a96565b8760005260208060002060005b85811015611a8d5781548a820152908401908201611a74565b50505082870194505b50929695505050505050565b8183823760009101908152919050565b67ffffffffffffffff831115611aca57611aca6118cc565b611ade83611ad883546118e2565b8361191c565b6000601f841160018114611b125760008515611afa5750838201355b600019600387901b1c1916600186901b17835561134d565b600083815260209020601f19861690835b82811015611b435786850135825560209485019460019092019101611b23565b5086821015611b605760001960f88860031b161c19848701351681555b505060018560011b0183555050505050565b600060208284031215611b8457600080fd5b5051919050565b818103818111156104be576104be6118a356fe126c7c8716c8f1c7c73a7370c820c7d73a9b4ed0ad633cfce1092f9ff47c8574a26469706673582212200e4c0873c0fb78a28e8f95dacd7491a98a640a4151cf1bdc9f0ab0e51356c2a364736f6c63430008190033","linkReferences":{}},"methodIdentifiers":{"CONTROL_ROLE()":"d7a1e6ab","DEFAULT_ADMIN_ROLE()":"a217fddf","DEFAULT_QUORUM()":"9a341b9f","THRESHOLD()":"785ffb37","cancelDispute(uint256)":"df02935c","castVote(uint256,bool)":"15373e3d","checkLottery(uint256)":"f43acb52","coolNFTContract()":"237e3feb","disputeResult(uint256)":"fdd1f754","disputes(uint256)":"564a565d","endDispute(uint256)":"5187b7a0","fptContract()":"d283f0af","getRoleAdmin(bytes32)":"248a9ca3","grantRole(bytes32,address)":"2f2ff15d","hasCheckedLottery(address,uint256)":"116a0db0","hasRole(bytes32,address)":"91d14854","hasVoted(address,uint256)":"42545825","newDispute(uint256,string,string)":"24ffa411","nextDisputeId()":"0db39934","queryDispute(uint256)":"fe253de2","queryDisputeResult(uint256)":"3c1d543e","quorum()":"1703a018","renounceRole(bytes32,address)":"36568abe","revokeRole(bytes32,address)":"d547741f","setShop(address)":"ce965f6a","shopContract()":"09090a51","supportsInterface(bytes4)":"01ffc9a7","updateConfig(string,string,address,address)":"59a716ad"},"id":39}