{"abi":[{"type":"constructor","inputs":[{"name":"daoAddress","type":"address","internalType":"address"},{"name":"vaultAddress","type":"address","internalType":"address"},{"name":"powersellerNFT","type":"address","internalType":"address"}],"stateMutability":"nonpayable"},{"type":"function","name":"ADMIN_ROLE","inputs":[],"outputs":[{"name":"","type":"bytes32","internalType":"bytes32"}],"stateMutability":"view"},{"type":"function","name":"BLACKLISTED_ROLE","inputs":[],"outputs":[{"name":"","type":"bytes32","internalType":"bytes32"}],"stateMutability":"view"},{"type":"function","name":"DAO_ROLE","inputs":[],"outputs":[{"name":"","type":"bytes32","internalType":"bytes32"}],"stateMutability":"view"},{"type":"function","name":"DEFAULT_ADMIN_ROLE","inputs":[],"outputs":[{"name":"","type":"bytes32","internalType":"bytes32"}],"stateMutability":"view"},{"type":"function","name":"MAX_PENDING_TIME","inputs":[],"outputs":[{"name":"","type":"uint256","internalType":"uint256"}],"stateMutability":"view"},{"type":"function","name":"blacklistedSellers","inputs":[{"name":"","type":"uint256","internalType":"uint256"}],"outputs":[{"name":"","type":"address","internalType":"address"}],"stateMutability":"view"},{"type":"function","name":"cancelActiveSale","inputs":[{"name":"itemId","type":"uint256","internalType":"uint256"}],"outputs":[],"stateMutability":"nonpayable"},{"type":"function","name":"claimPowersellerBadge","inputs":[],"outputs":[],"stateMutability":"nonpayable"},{"type":"function","name":"closeSale","inputs":[{"name":"itemId","type":"uint256","internalType":"uint256"},{"name":"reimburseBuyer","type":"bool","internalType":"bool"},{"name":"paySeller","type":"bool","internalType":"bool"},{"name":"releaseSellerStake","type":"bool","internalType":"bool"}],"outputs":[],"stateMutability":"nonpayable"},{"type":"function","name":"daoContract","inputs":[],"outputs":[{"name":"","type":"address","internalType":"contract IFP_DAO"}],"stateMutability":"view"},{"type":"function","name":"disputeSale","inputs":[{"name":"itemId","type":"uint256","internalType":"uint256"},{"name":"buyerReasoning","type":"string","internalType":"string"}],"outputs":[],"stateMutability":"nonpayable"},{"type":"function","name":"disputedItems","inputs":[{"name":"","type":"uint256","internalType":"uint256"}],"outputs":[{"name":"disputeId","type":"uint256","internalType":"uint256"},{"name":"buyerReasoning","type":"string","internalType":"string"},{"name":"sellerReasoning","type":"string","internalType":"string"}],"stateMutability":"view"},{"type":"function","name":"disputedSaleReply","inputs":[{"name":"itemId","type":"uint256","internalType":"uint256"},{"name":"sellerReasoning","type":"string","internalType":"string"}],"outputs":[],"stateMutability":"nonpayable"},{"type":"function","name":"doBuy","inputs":[{"name":"itemId","type":"uint256","internalType":"uint256"}],"outputs":[],"stateMutability":"payable"},{"type":"function","name":"endDispute","inputs":[{"name":"itemId","type":"uint256","internalType":"uint256"}],"outputs":[],"stateMutability":"nonpayable"},{"type":"function","name":"firstValidSaleTimestamp","inputs":[{"name":"","type":"address","internalType":"address"}],"outputs":[{"name":"","type":"uint256","internalType":"uint256"}],"stateMutability":"view"},{"type":"function","name":"getRoleAdmin","inputs":[{"name":"role","type":"bytes32","internalType":"bytes32"}],"outputs":[{"name":"","type":"bytes32","internalType":"bytes32"}],"stateMutability":"view"},{"type":"function","name":"grantRole","inputs":[{"name":"role","type":"bytes32","internalType":"bytes32"},{"name":"account","type":"address","internalType":"address"}],"outputs":[],"stateMutability":"nonpayable"},{"type":"function","name":"hasRole","inputs":[{"name":"role","type":"bytes32","internalType":"bytes32"},{"name":"account","type":"address","internalType":"address"}],"outputs":[{"name":"","type":"bool","internalType":"bool"}],"stateMutability":"view"},{"type":"function","name":"itemReceived","inputs":[{"name":"itemId","type":"uint256","internalType":"uint256"}],"outputs":[],"stateMutability":"nonpayable"},{"type":"function","name":"modifySale","inputs":[{"name":"itemId","type":"uint256","internalType":"uint256"},{"name":"newTitle","type":"string","internalType":"string"},{"name":"newDesc","type":"string","internalType":"string"},{"name":"newPrice","type":"uint256","internalType":"uint256"}],"outputs":[],"stateMutability":"nonpayable"},{"type":"function","name":"newSale","inputs":[{"name":"title","type":"string","internalType":"string"},{"name":"description","type":"string","internalType":"string"},{"name":"price","type":"uint256","internalType":"uint256"}],"outputs":[],"stateMutability":"nonpayable"},{"type":"function","name":"numValidSales","inputs":[{"name":"","type":"address","internalType":"address"}],"outputs":[{"name":"","type":"uint256","internalType":"uint256"}],"stateMutability":"view"},{"type":"function","name":"offerIndex","inputs":[],"outputs":[{"name":"","type":"uint256","internalType":"uint256"}],"stateMutability":"view"},{"type":"function","name":"offeredItems","inputs":[{"name":"","type":"uint256","internalType":"uint256"}],"outputs":[{"name":"seller","type":"address","internalType":"address"},{"name":"buyer","type":"address","internalType":"address"},{"name":"title","type":"string","internalType":"string"},{"name":"description","type":"string","internalType":"string"},{"name":"price","type":"uint256","internalType":"uint256"},{"name":"state","type":"uint8","internalType":"enum FP_Shop.State"},{"name":"buyTimestamp","type":"uint256","internalType":"uint256"}],"stateMutability":"view"},{"type":"function","name":"powersellerContract","inputs":[],"outputs":[{"name":"","type":"address","internalType":"address"}],"stateMutability":"view"},{"type":"function","name":"queryDispute","inputs":[{"name":"itemId","type":"uint256","internalType":"uint256"}],"outputs":[{"name":"","type":"tuple","internalType":"struct FP_Shop.Dispute","components":[{"name":"disputeId","type":"uint256","internalType":"uint256"},{"name":"buyerReasoning","type":"string","internalType":"string"},{"name":"sellerReasoning","type":"string","internalType":"string"}]}],"stateMutability":"view"},{"type":"function","name":"querySale","inputs":[{"name":"itemId","type":"uint256","internalType":"uint256"}],"outputs":[{"name":"","type":"tuple","internalType":"struct FP_Shop.Sale","components":[{"name":"seller","type":"address","internalType":"address"},{"name":"buyer","type":"address","internalType":"address"},{"name":"title","type":"string","internalType":"string"},{"name":"description","type":"string","internalType":"string"},{"name":"price","type":"uint256","internalType":"uint256"},{"name":"state","type":"uint8","internalType":"enum FP_Shop.State"},{"name":"buyTimestamp","type":"uint256","internalType":"uint256"}]}],"stateMutability":"view"},{"type":"function","name":"removeMaliciousSale","inputs":[{"name":"itemId","type":"uint256","internalType":"uint256"}],"outputs":[],"stateMutability":"nonpayable"},{"type":"function","name":"renounceRole","inputs":[{"name":"role","type":"bytes32","internalType":"bytes32"},{"name":"callerConfirmation","type":"address","internalType":"address"}],"outputs":[],"stateMutability":"nonpayable"},{"type":"function","name":"returnItem","inputs":[{"name":"itemId","type":"uint256","internalType":"uint256"}],"outputs":[],"stateMutability":"nonpayable"},{"type":"function","name":"revokeRole","inputs":[{"name":"role","type":"bytes32","internalType":"bytes32"},{"name":"account","type":"address","internalType":"address"}],"outputs":[],"stateMutability":"nonpayable"},{"type":"function","name":"setVacationMode","inputs":[{"name":"vacationMode","type":"bool","internalType":"bool"}],"outputs":[],"stateMutability":"nonpayable"},{"type":"function","name":"supportsInterface","inputs":[{"name":"interfaceId","type":"bytes4","internalType":"bytes4"}],"outputs":[{"name":"","type":"bool","internalType":"bool"}],"stateMutability":"view"},{"type":"function","name":"vaultContract","inputs":[],"outputs":[{"name":"","type":"address","internalType":"contract IFP_Vault"}],"stateMutability":"view"},{"type":"event","name":"AwardNFT","inputs":[{"name":"user","type":"address","indexed":false,"internalType":"address"}],"anonymous":false},{"type":"event","name":"BlacklistSeller","inputs":[{"name":"seller","type":"address","indexed":false,"internalType":"address"}],"anonymous":false},{"type":"event","name":"Buy","inputs":[{"name":"user","type":"address","indexed":false,"internalType":"address"},{"name":"item","type":"uint256","indexed":false,"internalType":"uint256"}],"anonymous":false},{"type":"event","name":"ModifyItem","inputs":[{"name":"id","type":"uint256","indexed":false,"internalType":"uint256"},{"name":"title","type":"string","indexed":false,"internalType":"string"}],"anonymous":false},{"type":"event","name":"NewItem","inputs":[{"name":"id","type":"uint256","indexed":false,"internalType":"uint256"},{"name":"title","type":"string","indexed":false,"internalType":"string"}],"anonymous":false},{"type":"event","name":"OpenDispute","inputs":[{"name":"user","type":"address","indexed":false,"internalType":"address"},{"name":"item","type":"uint256","indexed":false,"internalType":"uint256"}],"anonymous":false},{"type":"event","name":"Reimburse","inputs":[{"name":"user","type":"address","indexed":false,"internalType":"address"},{"name":"amount","type":"uint256","indexed":false,"internalType":"uint256"}],"anonymous":false},{"type":"event","name":"RoleAdminChanged","inputs":[{"name":"role","type":"bytes32","indexed":true,"internalType":"bytes32"},{"name":"previousAdminRole","type":"bytes32","indexed":true,"internalType":"bytes32"},{"name":"newAdminRole","type":"bytes32","indexed":true,"internalType":"bytes32"}],"anonymous":false},{"type":"event","name":"RoleGranted","inputs":[{"name":"role","type":"bytes32","indexed":true,"internalType":"bytes32"},{"name":"account","type":"address","indexed":true,"internalType":"address"},{"name":"sender","type":"address","indexed":true,"internalType":"address"}],"anonymous":false},{"type":"event","name":"RoleRevoked","inputs":[{"name":"role","type":"bytes32","indexed":true,"internalType":"bytes32"},{"name":"account","type":"address","indexed":true,"internalType":"address"},{"name":"sender","type":"address","indexed":true,"internalType":"address"}],"anonymous":false},{"type":"error","name":"AccessControlBadConfirmation","inputs":[]},{"type":"error","name":"AccessControlUnauthorizedAccount","inputs":[{"name":"account","type":"address","internalType":"address"},{"name":"neededRole","type":"bytes32","internalType":"bytes32"}]}],"bytecode":{"object":"0x60e060405234801561001057600080fd5b5060405161362738038061362783398101604081905261002f9161016a565b6100597fa49807205ce4d355092ef5a8a18f56e8913cf4a201fbe287825b095693c21775336100a2565b506100847f3b5d4cc60d3ec3516ee8ae083bd60934f6eb2a6c54b1229985c41bfb092b2603846100a2565b506001600160a01b0390811660805291821660c0521660a0526101ad565b6000828152602081815260408083206001600160a01b038516845290915281205460ff16610144576000838152602081815260408083206001600160a01b03861684529091529020805460ff191660011790556100fc3390565b6001600160a01b0316826001600160a01b0316847f2f8788117e7eff1d82e926ec794901d17c78024a50270940304540a733656f0d60405160405180910390a4506001610148565b5060005b92915050565b80516001600160a01b038116811461016557600080fd5b919050565b60008060006060848603121561017f57600080fd5b6101888461014e565b92506101966020850161014e565b91506101a46040850161014e565b90509250925092565b60805160a05160c0516134056102226000396000818161043b015281816124b401526126ae015260008181610323015281816110fa0152818161174e01528181611df801528181611eb501526129d20152600081816105d1015281816113f701528181612759015261287901526134056000f3fe6080604052600436106102045760003560e01c806372af5ba311610118578063a55dd46b116100a0578063d547741f1161006f578063d547741f14610688578063d9209de8146106a8578063e9c26518146106c8578063fb7c0a3f146106fc578063fe253de21461070f57600080fd5b8063a55dd46b14610608578063a610c29814610628578063ab0378be14610648578063c2b9cf8d1461066857600080fd5b806391d14854116100e757806391d148541461055257806391eedc621461057257806398f52bd1146105925780639cef900e146105bf578063a217fddf146105f357600080fd5b806372af5ba3146104bf57806375b238fc146104d65780637b5e7e931461050a5780638409ae491461053d57600080fd5b8063248a9ca31161019b578063424f7eda1161016a578063424f7eda146103fa5780634a7ffcbc146104295780635187b7a01461045d5780635937204e1461047d57806362b199c51461049d57600080fd5b8063248a9ca31461035d5780632f2ff15d1461038d57806336568abe146103ad5780633b75b691146103cd57600080fd5b80631f22b677116101d75780631f22b677146102bb57806320ca2d27146102d1578063223ed1dd146102f15780632274346b1461031157600080fd5b806301ffc9a7146102095780630fa3d7d61461023e57806315248bf9146102605780631d24e2991461029b575b600080fd5b34801561021557600080fd5b50610229610224366004612b56565b61073c565b60405190151581526020015b60405180910390f35b34801561024a57600080fd5b5061025e610259366004612bd0565b610773565b005b34801561026c57600080fd5b5061028d61027b366004612c38565b60046020526000908152604090205481565b604051908152602001610235565b3480156102a757600080fd5b5061025e6102b6366004612c53565b610849565b3480156102c757600080fd5b5061028d60025481565b3480156102dd57600080fd5b5061025e6102ec366004612bd0565b610942565b3480156102fd57600080fd5b5061025e61030c366004612c53565b610ac3565b34801561031d57600080fd5b506103457f000000000000000000000000000000000000000000000000000000000000000081565b6040516001600160a01b039091168152602001610235565b34801561036957600080fd5b5061028d610378366004612c53565b60009081526020819052604090206001015490565b34801561039957600080fd5b5061025e6103a8366004612c6c565b610b99565b3480156103b957600080fd5b5061025e6103c8366004612c6c565b610bc4565b3480156103d957600080fd5b5061028d6103e8366004612c38565b60036020526000908152604090205481565b34801561040657600080fd5b5061041a610415366004612c53565b610bf7565b60405161023593929190612ce8565b34801561043557600080fd5b506103457f000000000000000000000000000000000000000000000000000000000000000081565b34801561046957600080fd5b5061025e610478366004612c53565b610d2a565b34801561048957600080fd5b5061025e610498366004612d1d565b610e47565b3480156104a957600080fd5b5061028d6000805160206133b083398151915281565b3480156104cb57600080fd5b5061028d62278d0081565b3480156104e257600080fd5b5061028d7fa49807205ce4d355092ef5a8a18f56e8913cf4a201fbe287825b095693c2177581565b34801561051657600080fd5b5061052a610525366004612c53565b6111bb565b6040516102359796959493929190612dc9565b34801561054957600080fd5b5061025e61131b565b34801561055e57600080fd5b5061022961056d366004612c6c565b6114e3565b34801561057e57600080fd5b5061025e61058d366004612e3d565b61150c565b34801561059e57600080fd5b506105b26105ad366004612c53565b611817565b6040516102359190612e90565b3480156105cb57600080fd5b506103457f000000000000000000000000000000000000000000000000000000000000000081565b3480156105ff57600080fd5b5061028d600081565b34801561061457600080fd5b5061025e610623366004612c53565b6119cf565b34801561063457600080fd5b5061025e610643366004612c53565b611ab8565b34801561065457600080fd5b5061025e610663366004612f1e565b611be0565b34801561067457600080fd5b50610345610683366004612c53565b611f9c565b34801561069457600080fd5b5061025e6106a3366004612c6c565b611fc6565b3480156106b457600080fd5b5061025e6106c3366004612fa0565b611feb565b3480156106d457600080fd5b5061028d7f3b5d4cc60d3ec3516ee8ae083bd60934f6eb2a6c54b1229985c41bfb092b260381565b61025e61070a366004612c53565b6120d2565b34801561071b57600080fd5b5061072f61072a366004612c53565b6122ee565b6040516102359190612fbd565b60006001600160e01b03198216637965db0b60e01b148061076d57506301ffc9a760e01b6001600160e01b03198316145b92915050565b6003600084815260016020526040902060059081015460ff169081111561079c5761079c612d91565b146107e25760405162461bcd60e51b8152602060048201526011602482015270125d195b481b9bdd08191a5cdc1d5d1959607a1b60448201526064015b60405180910390fd5b6000838152600160205260409020546001600160a01b031633146108395760405162461bcd60e51b815260206004820152600e60248201526d2737ba103a34329039b2b63632b960911b60448201526064016107d9565b610844838383612465565b505050565b6001600082815260016020526040902060059081015460ff169081111561087257610872612d91565b146108bf5760405162461bcd60e51b815260206004820152601760248201527f53616c652063616e27742062652063616e63656c6c656400000000000000000060448201526064016107d9565b6000818152600160205260409020546001600160a01b031633146109315760405162461bcd60e51b815260206004820152602360248201527f4f6e6c79207468652073656c6c65722063616e2063616e63656c207468652073604482015262616c6560e81b60648201526084016107d9565b61093f81600080600161150c565b50565b6002600084815260016020526040902060059081015460ff169081111561096b5761096b612d91565b146109ab5760405162461bcd60e51b815260206004820152601060248201526f4974656d206e6f742070656e64696e6760801b60448201526064016107d9565b600083815260016020819052604090912001546001600160a01b03163314610a055760405162461bcd60e51b815260206004820152600d60248201526c2737ba103a343290313abcb2b960991b60448201526064016107d9565b600083815260016020908152604080832060058101805460ff1916600317905560060183905580516060810182528381528151601f86018490048402810184019092528482529182810191908690869081908401838280828437600092018290525093855250506040805160208181018352848252948501528883526005845290912083518155918301519293508392600183019150610aa590826130a9565b5060408201516002820190610aba90826130a9565b50505050505050565b7f3b5d4cc60d3ec3516ee8ae083bd60934f6eb2a6c54b1229985c41bfb092b2603610aed81612581565b6003600083815260016020526040902060059081015460ff1690811115610b1657610b16612d91565b14610b575760405162461bcd60e51b8152602060048201526011602482015270125d195b481b9bdd08191a5cdc1d5d1959607a1b60448201526064016107d9565b600082815260056020526040812081815590610b766001830182612aa3565b610b84600283016000612aa3565b5050610b958260016000600161150c565b5050565b600082815260208190526040902060010154610bb481612581565b610bbe838361258b565b50505050565b6001600160a01b0381163314610bed5760405163334bd91960e11b815260040160405180910390fd5b610844828261261d565b60056020526000908152604090208054600182018054919291610c199061301f565b80601f0160208091040260200160405190810160405280929190818152602001828054610c459061301f565b8015610c925780601f10610c6757610100808354040283529160200191610c92565b820191906000526020600020905b815481529060010190602001808311610c7557829003601f168201915b505050505090806002018054610ca79061301f565b80601f0160208091040260200160405190810160405280929190818152602001828054610cd39061301f565b8015610d205780601f10610cf557610100808354040283529160200191610d20565b820191906000526020600020905b815481529060010190602001808311610d0357829003601f168201915b5050505050905083565b6003600082815260016020526040902060059081015460ff1690811115610d5357610d53612d91565b14610d945760405162461bcd60e51b8152602060048201526011602482015270111a5cdc1d5d19481b9bdd08199bdd5b99607a1b60448201526064016107d9565b600081815260016020819052604090912001546001600160a01b03163303610dc457610dbf81612688565b610e1d565b610ded7f3b5d4cc60d3ec3516ee8ae083bd60934f6eb2a6c54b1229985c41bfb092b2603612581565b600081815260056020526040812081815590610e0c6001830182612aa3565b610e1a600283016000612aa3565b50505b60008181526001602081905260408220600501805460ff1916600417905561093f9183918061150c565b610e5f6000805160206133b0833981519152336114e3565b15610ea45760405162461bcd60e51b815260206004820152601560248201527414d95b1b195c881a5cc8189b1858dadb1a5cdd1959605a1b60448201526064016107d9565b60008111610ef45760405162461bcd60e51b815260206004820152601c60248201527f5072696365206d7573742062652067726561746572207468616e20300000000060448201526064016107d9565b83610f395760405162461bcd60e51b81526020600482015260156024820152745469746c652063616e6e6f7420626520656d70747960581b60448201526064016107d9565b81610f865760405162461bcd60e51b815260206004820152601b60248201527f4465736372697074696f6e2063616e6e6f7420626520656d707479000000000060448201526064016107d9565b6002546040805160e081018252338152600060208083018290528351601f8a0182900482028101820185528981529193830191908a908a9081908401838280828437600092019190915250505090825250604080516020601f8901819004810282018101909252878152918101919088908890819084018382808284376000920191909152505050908252506020810185905260400160018152600060209182018190528481526001808352604091829020845181546001600160a01b03199081166001600160a01b039283161783559486015192820180549095169216919091179092558201519192508291600282019061108290826130a9565b506060820151600382019061109790826130a9565b506080820151816004015560a08201518160050160006101000a81548160ff021916908360058111156110cc576110cc612d91565b021790555060c091909101516006909101556040516303d13c0b60e31b8152336004820152602481018490527f00000000000000000000000000000000000000000000000000000000000000006001600160a01b031690631e89e05890604401600060405180830381600087803b15801561114657600080fd5b505af115801561115a573d6000803e3d6000fd5b50505050600160026000828254611171919061317f565b90915550506040517f4fb1726f546a7c2df9330ef0375a6331aa2f55d13233b4940f90920d93017545906111aa9084908a908a90613192565b60405180910390a150505050505050565b60016020819052600091825260409091208054918101546002820180546001600160a01b039485169490921692916111f29061301f565b80601f016020809104026020016040519081016040528092919081815260200182805461121e9061301f565b801561126b5780601f106112405761010080835404028352916020019161126b565b820191906000526020600020905b81548152906001019060200180831161124e57829003601f168201915b5050505050908060030180546112809061301f565b80601f01602080910402602001604051908101604052809291908181526020018280546112ac9061301f565b80156112f95780601f106112ce576101008083540402835291602001916112f9565b820191906000526020600020905b8154815290600101906020018083116112dc57829003601f168201915b50505050600483015460058401546006909401549293909260ff909116915087565b33600090815260036020526040902054600a11156113745760405162461bcd60e51b81526020600482015260166024820152754e6f7420656e6f7567682076616c69642073616c657360501b60448201526064016107d9565b33600090815260046020526040902054622e24809061139390426131c8565b10156113e15760405162461bcd60e51b815260206004820152601b60248201527f4e6f7420656e6f7567682074696d652068617320656c6170736564000000000060448201526064016107d9565b6040513360248201526000906001600160a01b037f0000000000000000000000000000000000000000000000000000000000000000169060440160408051601f198184030181529181526020820180516001600160e01b03166340d097c360e01b1790525161145091906131db565b6000604051808303816000865af19150503d806000811461148d576040519150601f19603f3d011682016040523d82523d6000602084013e611492565b606091505b505090508061093f5760405162461bcd60e51b815260206004820152601d60248201527f736166654d696e742861646472657373292063616c6c206661696c656400000060448201526064016107d9565b6000918252602082815260408084206001600160a01b0393909316845291905290205460ff1690565b60008481526001602081905260409091208054918101546004909101546001600160a01b039283169290911690851561161c576000826001600160a01b03168260405160006040518083038185875af1925050503d806000811461158c576040519150601f19603f3d011682016040523d82523d6000602084013e611591565b606091505b50509050806115d85760405162461bcd60e51b815260206004820152601360248201527214d85b19481c185e5b595b9d0819985a5b1959606a1b60448201526064016107d9565b604080516001600160a01b0385168152602081018490527fabb9382c3f9ac67dfe9ef9b15126298d48d2652c5fab10d215c59e414caf2b80910160405180910390a1505b8415611722576001600160a01b0383166000908152600360205260408120805491611646836131f7565b90915550506001600160a01b038316600090815260036020526040902054600103611687576001600160a01b03831660009081526004602052604090204290555b6000836001600160a01b03168260405160006040518083038185875af1925050503d80600081146116d4576040519150601f19603f3d011682016040523d82523d6000602084013e6116d9565b606091505b50509050806117205760405162461bcd60e51b815260206004820152601360248201527214d85b19481c185e5b595b9d0819985a5b1959606a1b60448201526064016107d9565b505b83156117ab576040516303b3117160e11b81526001600160a01b038481166004830152602482018390527f0000000000000000000000000000000000000000000000000000000000000000169063076622e290604401600060405180830381600087803b15801561179257600080fd5b505af11580156117a6573d6000803e3d6000fd5b505050505b6000878152600160208190526040822080546001600160a01b031990811682559181018054909216909155906117e46002830182612aa3565b6117f2600383016000612aa3565b5060006004820181905560058201805460ff1916905560069091015550505050505050565b61181f612add565b600082815260016020818152604092839020835160e08101855281546001600160a01b0390811682529382015490931691830191909152600281018054929391929184019161186d9061301f565b80601f01602080910402602001604051908101604052809291908181526020018280546118999061301f565b80156118e65780601f106118bb576101008083540402835291602001916118e6565b820191906000526020600020905b8154815290600101906020018083116118c957829003601f168201915b505050505081526020016003820180546118ff9061301f565b80601f016020809104026020016040519081016040528092919081815260200182805461192b9061301f565b80156119785780601f1061194d57610100808354040283529160200191611978565b820191906000526020600020905b81548152906001019060200180831161195b57829003601f168201915b50505091835250506004820154602082015260058083015460409092019160ff16908111156119a9576119a9612d91565b60058111156119ba576119ba612d91565b81526020016006820154815250509050919050565b600081815260016020526040902054336001600160a01b0390911603611a5e5760008181526001602052604090206006015462278d0090611a1090426131c8565b1015610dbf5760405162461bcd60e51b815260206004820152601960248201527f496e73756666696369656e7420656c61707365642074696d650000000000000060448201526064016107d9565b600081815260016020819052604090912001546001600160a01b03163314610e1d5760405162461bcd60e51b815260206004820152600d60248201526c2737ba103a343290313abcb2b960991b60448201526064016107d9565b7fa49807205ce4d355092ef5a8a18f56e8913cf4a201fbe287825b095693c21775611ae281612581565b6000828152600160205260409020546001600160a01b031680611b3f5760405162461bcd60e51b81526020600482015260156024820152741a5d195b525908191bd95cc81b9bdd08195e1a5cdd605a1b60448201526064016107d9565b611b488161273f565b611b5181612979565b6002600084815260016020526040902060059081015460ff1690811115611b7a57611b7a612d91565b03611b8d5761084483600160008061150c565b6003600084815260016020526040902060059081015460ff1690811115611bb657611bb6612d91565b03611bd257611bc983600160008061150c565b61084483612688565b61084483600080600061150c565b6001600087815260016020526040902060059081015460ff1690811115611c0957611c09612d91565b14611c4f5760405162461bcd60e51b815260206004820152601660248201527514d85b194818d85b89dd081899481b5bd91a599a595960521b60448201526064016107d9565b60008111611c9f5760405162461bcd60e51b815260206004820152601c60248201527f5072696365206d7573742062652067726561746572207468616e20300000000060448201526064016107d9565b83611ce45760405162461bcd60e51b81526020600482015260156024820152745469746c652063616e6e6f7420626520656d70747960581b60448201526064016107d9565b81611d315760405162461bcd60e51b815260206004820152601b60248201527f4465736372697074696f6e2063616e6e6f7420626520656d707479000000000060448201526064016107d9565b6000868152600160205260409020546001600160a01b03163314611da35760405162461bcd60e51b815260206004820152602360248201527f4f6e6c79207468652073656c6c65722063616e206d6f64696679207468652073604482015262616c6560e81b60648201526084016107d9565b600086815260016020526040812060040154821015611e6157600087815260016020526040902060040154611dd99083906131c8565b6040516303b3117160e11b8152336004820152602481018290529091507f00000000000000000000000000000000000000000000000000000000000000006001600160a01b03169063076622e290604401600060405180830381600087803b158015611e4457600080fd5b505af1158015611e58573d6000803e3d6000fd5b50505050611f1a565b600087815260016020526040902060040154821115611f1a57600087815260016020526040902060040154611e9690836131c8565b6040516303d13c0b60e31b8152336004820152602481018290529091507f00000000000000000000000000000000000000000000000000000000000000006001600160a01b031690631e89e05890604401600060405180830381600087803b158015611f0157600080fd5b505af1158015611f15573d6000803e3d6000fd5b505050505b6000878152600160205260409020600201611f36868883613210565b506000878152600160205260409020600301611f53848683613210565b5060008781526001602052604090819020600401839055517fe498c427997a059c76f62dc80c09e284746fb7abf268e673ad2980ec9d1ce212906111aa90899089908990613192565b60068181548110611fac57600080fd5b6000918252602090912001546001600160a01b0316905081565b600082815260208190526040902060010154611fe181612581565b610bbe838361261d565b60005b600254811015610b9557600081815260016020526040902054336001600160a01b03909116036120ca5781801561204b57506001600082815260016020526040902060059081015460ff169081111561204957612049612d91565b145b156120735760008181526001602052604090206005908101805460ff191690911790556120ca565b811580156120a55750600081815260016020526040902060059081015460ff16818111156120a3576120a3612d91565b145b156120ca576000818152600160208190526040909120600501805460ff191690911790555b600101611fee565b6000818152600160205260409020546001600160a01b031661212e5760405162461bcd60e51b81526020600482015260156024820152741a5d195b525908191bd95cc81b9bdd08195e1a5cdd605a1b60448201526064016107d9565b6001600082815260016020526040902060059081015460ff169081111561215757612157612d91565b1461219c5760405162461bcd60e51b8152602060048201526015602482015274125d195b4818d85b9b9bdd08189948189bdd59da1d605a1b60448201526064016107d9565b6000818152600160205260409020600401543410156121fd5760405162461bcd60e51b815260206004820152601e60248201527f496e636f727265637420616d6f756e74206f662045746865722073656e74000060448201526064016107d9565b60008181526001602052604090205461222e906000805160206133b0833981519152906001600160a01b03166114e3565b156122735760405162461bcd60e51b815260206004820152601560248201527414d95b1b195c881a5cc8189b1858dadb1a5cdd1959605a1b60448201526064016107d9565b6000818152600160208181526040928390209182018054336001600160a01b0319909116811790915560058301805460ff1916600217905542600690930192909255825191825281018390527fe3d4187f6ca4248660cc0ac8b8056515bac4a8132be2eca31d6d0cc170722a7e91015b60405180910390a150565b61231260405180606001604052806000815260200160608152602001606081525090565b600560008381526020019081526020016000206040518060600160405290816000820154815260200160018201805461234a9061301f565b80601f01602080910402602001604051908101604052809291908181526020018280546123769061301f565b80156123c35780601f10612398576101008083540402835291602001916123c3565b820191906000526020600020905b8154815290600101906020018083116123a657829003601f168201915b505050505081526020016002820180546123dc9061301f565b80601f01602080910402602001604051908101604052809291908181526020018280546124089061301f565b80156124555780601f1061242a57610100808354040283529160200191612455565b820191906000526020600020905b81548152906001019060200180831161243857829003601f168201915b5050505050815250509050919050565b600083815260016020818152604080842090920154600590915291206001600160a01b03909116906002810161249c848683613210565b506040516324ffa41160e01b81526001600160a01b037f000000000000000000000000000000000000000000000000000000000000000016906324ffa411906124f39088906001860190600287019060040161334e565b6020604051808303816000875af1158015612512573d6000803e3d6000fd5b505050506040513d601f19601f820116820180604052508101906125369190613379565b8155604080516001600160a01b0384168152602081018790527fbd7453469187da17528f45cf1793962104dabbc6d7f267bc42903f77d1a76d1a910160405180910390a15050505050565b61093f8133612a6a565b600061259783836114e3565b612615576000838152602081815260408083206001600160a01b03861684529091529020805460ff191660011790556125cd3390565b6001600160a01b0316826001600160a01b0316847f2f8788117e7eff1d82e926ec794901d17c78024a50270940304540a733656f0d60405160405180910390a450600161076d565b50600061076d565b600061262983836114e3565b15612615576000838152602081815260408083206001600160a01b0386168085529252808320805460ff1916905551339286917ff6391f5c32d9c69d2a47ea670b442974b53935d1edc7fd64eb21e047a839171b9190a450600161076d565b600081815260056020526040908190205490516337c0a4d760e21b8152600481018290527f00000000000000000000000000000000000000000000000000000000000000006001600160a01b03169063df02935c90602401600060405180830381600087803b1580156126fa57600080fd5b505af115801561270e573d6000803e3d6000fd5b505050600083815260056020526040812081815591506127316001830182612aa3565b610bbe600283016000612aa3565b6040516001600160a01b03828116602483015260009182917f0000000000000000000000000000000000000000000000000000000000000000169060440160408051601f198184030181529181526020820180516001600160e01b03166313b10d4d60e31b179052516127b291906131db565b6000604051808303816000865af19150503d80600081146127ef576040519150601f19603f3d011682016040523d82523d6000602084013e6127f4565b606091505b5091509150816128465760405162461bcd60e51b815260206004820152601c60248201527f636865636b50726976696c65676528292063616c6c206661696c65640000000060448201526064016107d9565b60008180602001905181019061285c9190613392565b90508015610bbe576040516001600160a01b0385811660248301527f0000000000000000000000000000000000000000000000000000000000000000169060440160408051601f198184030181529181526020820180516001600160e01b03166375c9702760e01b179052516128d291906131db565b6000604051808303816000865af19150503d806000811461290f576040519150601f19603f3d011682016040523d82523d6000602084013e612914565b606091505b50508093505082610bbe5760405162461bcd60e51b815260206004820152602960248201527f72656d6f7665506f77657273656c6c65724e46542861646472657373292063616044820152681b1b0819985a5b195960ba1b60648201526084016107d9565b6129916000805160206133b083398151915282610b99565b6001600160a01b038181166000818152600360209081526040808320839055600491829052808320929092559051630e9973db60e31b8152908101919091527f0000000000000000000000000000000000000000000000000000000000000000909116906374cb9ed890602401600060405180830381600087803b158015612a1857600080fd5b505af1158015612a2c573d6000803e3d6000fd5b50506040516001600160a01b03841681527f3792d06e03cef23745f2e711098be52e90a31d22cb5f39e60d75393ee83412b5925060200190506122e3565b612a7482826114e3565b610b955760405163e2517d3f60e01b81526001600160a01b0382166004820152602481018390526044016107d9565b508054612aaf9061301f565b6000825580601f10612abf575050565b601f01602090049060005260206000209081019061093f9190612b3d565b6040518060e0016040528060006001600160a01b0316815260200160006001600160a01b0316815260200160608152602001606081526020016000815260200160006005811115612b3057612b30612d91565b8152602001600081525090565b5b80821115612b525760008155600101612b3e565b5090565b600060208284031215612b6857600080fd5b81356001600160e01b031981168114612b8057600080fd5b9392505050565b60008083601f840112612b9957600080fd5b50813567ffffffffffffffff811115612bb157600080fd5b602083019150836020828501011115612bc957600080fd5b9250929050565b600080600060408486031215612be557600080fd5b83359250602084013567ffffffffffffffff811115612c0357600080fd5b612c0f86828701612b87565b9497909650939450505050565b80356001600160a01b0381168114612c3357600080fd5b919050565b600060208284031215612c4a57600080fd5b612b8082612c1c565b600060208284031215612c6557600080fd5b5035919050565b60008060408385031215612c7f57600080fd5b82359150612c8f60208401612c1c565b90509250929050565b60005b83811015612cb3578181015183820152602001612c9b565b50506000910152565b60008151808452612cd4816020860160208601612c98565b601f01601f19169290920160200192915050565b838152606060208201526000612d016060830185612cbc565b8281036040840152612d138185612cbc565b9695505050505050565b600080600080600060608688031215612d3557600080fd5b853567ffffffffffffffff80821115612d4d57600080fd5b612d5989838a01612b87565b90975095506020880135915080821115612d7257600080fd5b50612d7f88828901612b87565b96999598509660400135949350505050565b634e487b7160e01b600052602160045260246000fd5b60068110612dc557634e487b7160e01b600052602160045260246000fd5b9052565b6001600160a01b0388811682528716602082015260e060408201819052600090612df590830188612cbc565b8281036060840152612e078188612cbc565b915050846080830152612e1d60a0830185612da7565b8260c083015298975050505050505050565b801515811461093f57600080fd5b60008060008060808587031215612e5357600080fd5b843593506020850135612e6581612e2f565b92506040850135612e7581612e2f565b91506060850135612e8581612e2f565b939692955090935050565b60208152600060018060a01b0380845116602084015280602085015116604084015250604083015160e06060840152612ecd610100840182612cbc565b90506060840151601f19848303016080850152612eea8282612cbc565b915050608084015160a084015260a0840151612f0960c0850182612da7565b5060c084015160e08401528091505092915050565b60008060008060008060808789031215612f3757600080fd5b86359550602087013567ffffffffffffffff80821115612f5657600080fd5b612f628a838b01612b87565b90975095506040890135915080821115612f7b57600080fd5b50612f8889828a01612b87565b979a9699509497949695606090950135949350505050565b600060208284031215612fb257600080fd5b8135612b8081612e2f565b60208152815160208201526000602083015160606040840152612fe36080840182612cbc565b90506040840151601f198483030160608501526130008282612cbc565b95945050505050565b634e487b7160e01b600052604160045260246000fd5b600181811c9082168061303357607f821691505b60208210810361305357634e487b7160e01b600052602260045260246000fd5b50919050565b601f821115610844576000816000526020600020601f850160051c810160208610156130825750805b601f850160051c820191505b818110156130a15782815560010161308e565b505050505050565b815167ffffffffffffffff8111156130c3576130c3613009565b6130d7816130d1845461301f565b84613059565b602080601f83116001811461310c57600084156130f45750858301515b600019600386901b1c1916600185901b1785556130a1565b600085815260208120601f198616915b8281101561313b5788860151825594840194600190910190840161311c565b50858210156131595787850151600019600388901b60f8161c191681555b5050505050600190811b01905550565b634e487b7160e01b600052601160045260246000fd5b8082018082111561076d5761076d613169565b83815260406020820152816040820152818360608301376000818301606090810191909152601f909201601f1916010192915050565b8181038181111561076d5761076d613169565b600082516131ed818460208701612c98565b9190910192915050565b60006001820161320957613209613169565b5060010190565b67ffffffffffffffff83111561322857613228613009565b61323c83613236835461301f565b83613059565b6000601f84116001811461327057600085156132585750838201355b600019600387901b1c1916600186901b1783556132ca565b600083815260209020601f19861690835b828110156132a15786850135825560209485019460019092019101613281565b50868210156132be5760001960f88860031b161c19848701351681555b505060018560011b0183555b5050505050565b600081546132de8161301f565b8085526020600183811680156132fb576001811461331557613343565b60ff1985168884015283151560051b880183019550613343565b866000528260002060005b8581101561333b5781548a8201860152908301908401613320565b890184019650505b505050505092915050565b83815260606020820152600061336760608301856132d1565b8281036040840152612d1381856132d1565b60006020828403121561338b57600080fd5b5051919050565b6000602082840312156133a457600080fd5b8151612b8081612e2f56fe548c7f0307ab2a7ea894e5c7e8c5353cc750bb9385ee2e945f189a9a83daa8eda264697066735822122001504c56d873e5b6c1221d1c031136930ab704220538e65bd4d83fe4d21cccc764736f6c63430008190033","linkReferences":{}},"methodIdentifiers":{"ADMIN_ROLE()":"75b238fc","BLACKLISTED_ROLE()":"62b199c5","DAO_ROLE()":"e9c26518","DEFAULT_ADMIN_ROLE()":"a217fddf","MAX_PENDING_TIME()":"72af5ba3","blacklistedSellers(uint256)":"c2b9cf8d","cancelActiveSale(uint256)":"1d24e299","claimPowersellerBadge()":"8409ae49","closeSale(uint256,bool,bool,bool)":"91eedc62","daoContract()":"4a7ffcbc","disputeSale(uint256,string)":"20ca2d27","disputedItems(uint256)":"424f7eda","disputedSaleReply(uint256,string)":"0fa3d7d6","doBuy(uint256)":"fb7c0a3f","endDispute(uint256)":"5187b7a0","firstValidSaleTimestamp(address)":"15248bf9","getRoleAdmin(bytes32)":"248a9ca3","grantRole(bytes32,address)":"2f2ff15d","hasRole(bytes32,address)":"91d14854","itemReceived(uint256)":"a55dd46b","modifySale(uint256,string,string,uint256)":"ab0378be","newSale(string,string,uint256)":"5937204e","numValidSales(address)":"3b75b691","offerIndex()":"1f22b677","offeredItems(uint256)":"7b5e7e93","powersellerContract()":"9cef900e","queryDispute(uint256)":"fe253de2","querySale(uint256)":"98f52bd1","removeMaliciousSale(uint256)":"a610c298","renounceRole(bytes32,address)":"36568abe","returnItem(uint256)":"223ed1dd","revokeRole(bytes32,address)":"d547741f","setVacationMode(bool)":"d9209de8","supportsInterface(bytes4)":"01ffc9a7","vaultContract()":"2274346b"},"id":42}