{"abi":[{"type":"constructor","inputs":[],"stateMutability":"nonpayable"},{"type":"function","name":"CONTROL_ROLE","inputs":[],"outputs":[{"name":"","type":"bytes32","internalType":"bytes32"}],"stateMutability":"view"},{"type":"function","name":"DEFAULT_ADMIN_ROLE","inputs":[],"outputs":[{"name":"","type":"bytes32","internalType":"bytes32"}],"stateMutability":"view"},{"type":"function","name":"approve","inputs":[{"name":"to","type":"address","internalType":"address"},{"name":"tokenId","type":"uint256","internalType":"uint256"}],"outputs":[],"stateMutability":"nonpayable"},{"type":"function","name":"balanceOf","inputs":[{"name":"owner","type":"address","internalType":"address"}],"outputs":[{"name":"","type":"uint256","internalType":"uint256"}],"stateMutability":"view"},{"type":"function","name":"burn","inputs":[{"name":"owner","type":"address","internalType":"address"}],"outputs":[],"stateMutability":"nonpayable"},{"type":"function","name":"getApproved","inputs":[{"name":"tokenId","type":"uint256","internalType":"uint256"}],"outputs":[{"name":"","type":"address","internalType":"address"}],"stateMutability":"view"},{"type":"function","name":"getRoleAdmin","inputs":[{"name":"role","type":"bytes32","internalType":"bytes32"}],"outputs":[{"name":"","type":"bytes32","internalType":"bytes32"}],"stateMutability":"view"},{"type":"function","name":"grantRole","inputs":[{"name":"role","type":"bytes32","internalType":"bytes32"},{"name":"account","type":"address","internalType":"address"}],"outputs":[],"stateMutability":"nonpayable"},{"type":"function","name":"hasRole","inputs":[{"name":"role","type":"bytes32","internalType":"bytes32"},{"name":"account","type":"address","internalType":"address"}],"outputs":[{"name":"","type":"bool","internalType":"bool"}],"stateMutability":"view"},{"type":"function","name":"isApprovedForAll","inputs":[{"name":"owner","type":"address","internalType":"address"},{"name":"operator","type":"address","internalType":"address"}],"outputs":[{"name":"","type":"bool","internalType":"bool"}],"stateMutability":"view"},{"type":"function","name":"mintCoolNFT","inputs":[{"name":"to","type":"address","internalType":"address"}],"outputs":[],"stateMutability":"nonpayable"},{"type":"function","name":"name","inputs":[],"outputs":[{"name":"","type":"string","internalType":"string"}],"stateMutability":"view"},{"type":"function","name":"nextTokenId","inputs":[],"outputs":[{"name":"","type":"uint256","internalType":"uint256"}],"stateMutability":"view"},{"type":"function","name":"ownerOf","inputs":[{"name":"tokenId","type":"uint256","internalType":"uint256"}],"outputs":[{"name":"","type":"address","internalType":"address"}],"stateMutability":"view"},{"type":"function","name":"renounceRole","inputs":[{"name":"role","type":"bytes32","internalType":"bytes32"},{"name":"callerConfirmation","type":"address","internalType":"address"}],"outputs":[],"stateMutability":"nonpayable"},{"type":"function","name":"revokeRole","inputs":[{"name":"role","type":"bytes32","internalType":"bytes32"},{"name":"account","type":"address","internalType":"address"}],"outputs":[],"stateMutability":"nonpayable"},{"type":"function","name":"safeTransferFrom","inputs":[{"name":"from","type":"address","internalType":"address"},{"name":"to","type":"address","internalType":"address"},{"name":"tokenId","type":"uint256","internalType":"uint256"}],"outputs":[],"stateMutability":"nonpayable"},{"type":"function","name":"safeTransferFrom","inputs":[{"name":"from","type":"address","internalType":"address"},{"name":"to","type":"address","internalType":"address"},{"name":"tokenId","type":"uint256","internalType":"uint256"},{"name":"data","type":"bytes","internalType":"bytes"}],"outputs":[],"stateMutability":"nonpayable"},{"type":"function","name":"setApprovalForAll","inputs":[{"name":"operator","type":"address","internalType":"address"},{"name":"approved","type":"bool","internalType":"bool"}],"outputs":[],"stateMutability":"nonpayable"},{"type":"function","name":"setDAO","inputs":[{"name":"daoAddr","type":"address","internalType":"address"}],"outputs":[],"stateMutability":"nonpayable"},{"type":"function","name":"supportsInterface","inputs":[{"name":"interfaceId","type":"bytes4","internalType":"bytes4"}],"outputs":[{"name":"","type":"bool","internalType":"bool"}],"stateMutability":"view"},{"type":"function","name":"symbol","inputs":[],"outputs":[{"name":"","type":"string","internalType":"string"}],"stateMutability":"view"},{"type":"function","name":"tokenIds","inputs":[{"name":"","type":"address","internalType":"address"}],"outputs":[{"name":"","type":"uint256","internalType":"uint256"}],"stateMutability":"view"},{"type":"function","name":"tokenURI","inputs":[{"name":"tokenId","type":"uint256","internalType":"uint256"}],"outputs":[{"name":"","type":"string","internalType":"string"}],"stateMutability":"view"},{"type":"function","name":"transferFrom","inputs":[{"name":"from","type":"address","internalType":"address"},{"name":"to","type":"address","internalType":"address"},{"name":"tokenId","type":"uint256","internalType":"uint256"}],"outputs":[],"stateMutability":"nonpayable"},{"type":"event","name":"Approval","inputs":[{"name":"owner","type":"address","indexed":true,"internalType":"address"},{"name":"approved","type":"address","indexed":true,"internalType":"address"},{"name":"tokenId","type":"uint256","indexed":true,"internalType":"uint256"}],"anonymous":false},{"type":"event","name":"ApprovalForAll","inputs":[{"name":"owner","type":"address","indexed":true,"internalType":"address"},{"name":"operator","type":"address","indexed":true,"internalType":"address"},{"name":"approved","type":"bool","indexed":false,"internalType":"bool"}],"anonymous":false},{"type":"event","name":"CoolNFT_Minted","inputs":[{"name":"owner","type":"address","indexed":true,"internalType":"address"},{"name":"tokenId","type":"uint256","indexed":false,"internalType":"uint256"}],"anonymous":false},{"type":"event","name":"CoolNFT_Removed","inputs":[{"name":"owner","type":"address","indexed":true,"internalType":"address"},{"name":"tokenId","type":"uint256","indexed":false,"internalType":"uint256"}],"anonymous":false},{"type":"event","name":"RoleAdminChanged","inputs":[{"name":"role","type":"bytes32","indexed":true,"internalType":"bytes32"},{"name":"previousAdminRole","type":"bytes32","indexed":true,"internalType":"bytes32"},{"name":"newAdminRole","type":"bytes32","indexed":true,"internalType":"bytes32"}],"anonymous":false},{"type":"event","name":"RoleGranted","inputs":[{"name":"role","type":"bytes32","indexed":true,"internalType":"bytes32"},{"name":"account","type":"address","indexed":true,"internalType":"address"},{"name":"sender","type":"address","indexed":true,"internalType":"address"}],"anonymous":false},{"type":"event","name":"RoleRevoked","inputs":[{"name":"role","type":"bytes32","indexed":true,"internalType":"bytes32"},{"name":"account","type":"address","indexed":true,"internalType":"address"},{"name":"sender","type":"address","indexed":true,"internalType":"address"}],"anonymous":false},{"type":"event","name":"Transfer","inputs":[{"name":"from","type":"address","indexed":true,"internalType":"address"},{"name":"to","type":"address","indexed":true,"internalType":"address"},{"name":"tokenId","type":"uint256","indexed":true,"internalType":"uint256"}],"anonymous":false},{"type":"error","name":"AccessControlBadConfirmation","inputs":[]},{"type":"error","name":"AccessControlUnauthorizedAccount","inputs":[{"name":"account","type":"address","internalType":"address"},{"name":"neededRole","type":"bytes32","internalType":"bytes32"}]},{"type":"error","name":"ERC721IncorrectOwner","inputs":[{"name":"sender","type":"address","internalType":"address"},{"name":"tokenId","type":"uint256","internalType":"uint256"},{"name":"owner","type":"address","internalType":"address"}]},{"type":"error","name":"ERC721InsufficientApproval","inputs":[{"name":"operator","type":"address","internalType":"address"},{"name":"tokenId","type":"uint256","internalType":"uint256"}]},{"type":"error","name":"ERC721InvalidApprover","inputs":[{"name":"approver","type":"address","internalType":"address"}]},{"type":"error","name":"ERC721InvalidOperator","inputs":[{"name":"operator","type":"address","internalType":"address"}]},{"type":"error","name":"ERC721InvalidOwner","inputs":[{"name":"owner","type":"address","internalType":"address"}]},{"type":"error","name":"ERC721InvalidReceiver","inputs":[{"name":"receiver","type":"address","internalType":"address"}]},{"type":"error","name":"ERC721InvalidSender","inputs":[{"name":"sender","type":"address","internalType":"address"}]},{"type":"error","name":"ERC721NonexistentToken","inputs":[{"name":"tokenId","type":"uint256","internalType":"uint256"}]}],"bytecode":{"object":"0x60806040526007805460ff1916905534801561001a57600080fd5b506040518060400160405280601281526020017111985a5b1b185c1bdc0810dbdbdb0813919560721b815250604051806040016040528060058152602001641190d3919560da1b8152508160009081610073919061020a565b506001610080828261020a565b5050506100b37f126c7c8716c8f1c7c73a7370c820c7d73a9b4ed0ad633cfce1092f9ff47c8574336100b960201b60201c565b506102c9565b60008281526006602090815260408083206001600160a01b038516845290915281205460ff1661015f5760008381526006602090815260408083206001600160a01b03861684529091529020805460ff191660011790556101173390565b6001600160a01b0316826001600160a01b0316847f2f8788117e7eff1d82e926ec794901d17c78024a50270940304540a733656f0d60405160405180910390a4506001610163565b5060005b92915050565b634e487b7160e01b600052604160045260246000fd5b600181811c9082168061019357607f821691505b6020821081036101b357634e487b7160e01b600052602260045260246000fd5b50919050565b601f821115610205576000816000526020600020601f850160051c810160208610156101e25750805b601f850160051c820191505b81811015610201578281556001016101ee565b5050505b505050565b81516001600160401b0381111561022357610223610169565b61023781610231845461017f565b846101b9565b602080601f83116001811461026c57600084156102545750858301515b600019600386901b1c1916600185901b178555610201565b600085815260208120601f198616915b8281101561029b5788860151825594840194600190910190840161027c565b50858210156102b95787850151600019600388901b60f8161c191681555b5050505050600190811b01905550565b61158d806102d86000396000f3fe608060405234801561001057600080fd5b50600436106101735760003560e01c806375794a3c116100de578063b88d4fde11610097578063d7a1e6ab11610071578063d7a1e6ab1461032c578063e73a914c14610341578063e985e9c514610354578063fc97a3031461036757600080fd5b8063b88d4fde146102f8578063c87b56dd14610306578063d547741f1461031957600080fd5b806375794a3c146102ab57806389afcb44146102b457806391d14854146102c757806395d89b41146102da578063a217fddf146102e2578063a22cb465146102ea57600080fd5b80632f2ff15d116101305780632f2ff15d1461023957806336568abe1461024c57806342842e0e1461025f5780636352211e1461027257806370a082311461028557806374e4fe361461029857600080fd5b806301ffc9a71461017857806306fdde03146101a0578063081812fc146101b5578063095ea7b3146101e057806323b872dd146101f5578063248a9ca314610208575b600080fd5b61018b610186366004611193565b610387565b60405190151581526020015b60405180910390f35b6101a86103a7565b6040516101979190611200565b6101c86101c3366004611213565b610439565b6040516001600160a01b039091168152602001610197565b6101f36101ee366004611248565b610462565b005b6101f3610203366004611272565b6104af565b61022b610216366004611213565b60009081526006602052604090206001015490565b604051908152602001610197565b6101f36102473660046112ae565b6104f7565b6101f361025a3660046112ae565b610522565b6101f361026d366004611272565b61055a565b6101c8610280366004611213565b610575565b61022b6102933660046112da565b610580565b6101f36102a63660046112da565b6105c8565b61022b60085481565b6101f36102c23660046112da565b6106cd565b61018b6102d53660046112ae565b6107c4565b6101a86107ef565b61022b600081565b6101f36101ee3660046112f5565b6101f3610203366004611347565b6101a8610314366004611213565b6107fe565b6101f36103273660046112ae565b610873565b61022b60008051602061153883398151915281565b6101f361034f3660046112da565b610898565b61018b610362366004611423565b610928565b61022b6103753660046112da565b60096020526000908152604090205481565b600061039282610956565b806103a157506103a1826109a6565b92915050565b6060600080546103b69061144d565b80601f01602080910402602001604051908101604052809291908181526020018280546103e29061144d565b801561042f5780601f106104045761010080835404028352916020019161042f565b820191906000526020600020905b81548152906001019060200180831161041257829003601f168201915b5050505050905090565b6000610444826109cb565b506000828152600460205260409020546001600160a01b03166103a1565b60405162461bcd60e51b815260206004820152601a60248201527f436f6f6c4e46542063616e6e6f7420626520617070726f76656400000000000060448201526064015b60405180910390fd5b60405162461bcd60e51b815260206004820152601d60248201527f436f6f6c4e46542063616e6e6f74206265207472616e7366657272656400000060448201526064016104a6565b60008281526006602052604090206001015461051281610a04565b61051c8383610a11565b50505050565b6001600160a01b038116331461054b5760405163334bd91960e11b815260040160405180910390fd5b6105558282610aa5565b505050565b610555838383604051806020016040528060008152506104af565b60006103a1826109cb565b60006001600160a01b0382166105ac576040516322718ad960e21b8152600060048201526024016104a6565b506001600160a01b031660009081526003602052604090205490565b6000805160206115388339815191526105e081610a04565b6001600160a01b038216600090815260096020526040902054156106465760405162461bcd60e51b815260206004820181905260248201527f5468697320757365722068617320616c7265616479206120436f6f6c204e465460448201526064016104a6565b6008805490600061065683611487565b90915550506008546001600160a01b0383166000908152600960205260409020819055610684908390610b12565b816001600160a01b03167f0d65fb4d41a77a88bb0c82a8d3f7ab4927ade82fec6b4e64235bad34cea9649c6008546040516106c191815260200190565b60405180910390a25050565b6000805160206115388339815191526106e581610a04565b6001600160a01b03821660009081526009602052604081205490036107565760405162461bcd60e51b815260206004820152602160248201527f54686973207573657220646f65736e27742068617665206120436f6f6c204e466044820152601560fa1b60648201526084016104a6565b6001600160a01b0382166000908152600960205260408120805491905561077c81610b30565b826001600160a01b03167f1bd7cc36adb1e52bd9495320614fd6dd4d57128862189bb9a9ef7869f7233857826040516107b791815260200190565b60405180910390a2505050565b60009182526006602090815260408084206001600160a01b0393909316845291905290205460ff1690565b6060600180546103b69061144d565b6060610809826109cb565b50600061082160408051602081019091526000815290565b90506000815111610841576040518060200160405280600081525061086c565b8061084b84610b6b565b60405160200161085c9291906114ae565b6040516020818303038152906040525b9392505050565b60008281526006602052604090206001015461088e81610a04565b61051c8383610aa5565b6000805160206115388339815191526108b081610a04565b60075460ff16156109035760405162461bcd60e51b815260206004820152601760248201527f44414f206164647265737320616c72656164792073657400000000000000000060448201526064016104a6565b6007805460ff1916600117905561055560008051602061153883398151915283610a11565b6001600160a01b03918216600090815260056020908152604080832093909416825291909152205460ff1690565b60006001600160e01b031982166380ac58cd60e01b148061098757506001600160e01b03198216635b5e139f60e01b145b806103a157506301ffc9a760e01b6001600160e01b03198316146103a1565b60006001600160e01b03198216637965db0b60e01b14806103a157506103a182610956565b6000818152600260205260408120546001600160a01b0316806103a157604051637e27328960e01b8152600481018490526024016104a6565b610a0e8133610bfe565b50565b6000610a1d83836107c4565b610a9d5760008381526006602090815260408083206001600160a01b03861684529091529020805460ff19166001179055610a553390565b6001600160a01b0316826001600160a01b0316847f2f8788117e7eff1d82e926ec794901d17c78024a50270940304540a733656f0d60405160405180910390a45060016103a1565b5060006103a1565b6000610ab183836107c4565b15610a9d5760008381526006602090815260408083206001600160a01b0386168085529252808320805460ff1916905551339286917ff6391f5c32d9c69d2a47ea670b442974b53935d1edc7fd64eb21e047a839171b9190a45060016103a1565b610b2c828260405180602001604052806000815250610c37565b5050565b6000610b3f6000836000610c4e565b90506001600160a01b038116610b2c57604051637e27328960e01b8152600481018390526024016104a6565b60606000610b7883610d47565b600101905060008167ffffffffffffffff811115610b9857610b98611331565b6040519080825280601f01601f191660200182016040528015610bc2576020820181803683370190505b5090508181016020015b600019016f181899199a1a9b1b9c1cb0b131b232b360811b600a86061a8153600a8504945084610bcc57509392505050565b610c0882826107c4565b610b2c5760405163e2517d3f60e01b81526001600160a01b0382166004820152602481018390526044016104a6565b610c418383610e1f565b6105556000848484610e84565b6000828152600260205260408120546001600160a01b0390811690831615610c7b57610c7b818486610fad565b6001600160a01b03811615610cb957610c98600085600080611011565b6001600160a01b038116600090815260036020526040902080546000190190555b6001600160a01b03851615610ce8576001600160a01b0385166000908152600360205260409020805460010190555b60008481526002602052604080822080546001600160a01b0319166001600160a01b0389811691821790925591518793918516917fddf252ad1be2c89b69c2b068fc378daa952ba7f163c4a11628f55a4df523b3ef91a4949350505050565b60008072184f03e93ff9f4daa797ed6e38ed64bf6a1f0160401b8310610d865772184f03e93ff9f4daa797ed6e38ed64bf6a1f0160401b830492506040015b6d04ee2d6d415b85acef81000000008310610db2576d04ee2d6d415b85acef8100000000830492506020015b662386f26fc100008310610dd057662386f26fc10000830492506010015b6305f5e1008310610de8576305f5e100830492506008015b6127108310610dfc57612710830492506004015b60648310610e0e576064830492506002015b600a83106103a15760010192915050565b6001600160a01b038216610e4957604051633250574960e11b8152600060048201526024016104a6565b6000610e5783836000610c4e565b90506001600160a01b03811615610555576040516339e3563760e11b8152600060048201526024016104a6565b6001600160a01b0383163b1561051c57604051630a85bd0160e11b81526001600160a01b0384169063150b7a0290610ec69033908890879087906004016114dd565b6020604051808303816000875af1925050508015610f01575060408051601f3d908101601f19168201909252610efe9181019061151a565b60015b610f6a573d808015610f2f576040519150601f19603f3d011682016040523d82523d6000602084013e610f34565b606091505b508051600003610f6257604051633250574960e11b81526001600160a01b03851660048201526024016104a6565b805181602001fd5b6001600160e01b03198116630a85bd0160e11b14610fa657604051633250574960e11b81526001600160a01b03851660048201526024016104a6565b5050505050565b610fb8838383611117565b610555576001600160a01b038316610fe657604051637e27328960e01b8152600481018290526024016104a6565b60405163177e802f60e01b81526001600160a01b0383166004820152602481018290526044016104a6565b808061102557506001600160a01b03821615155b156110e7576000611035846109cb565b90506001600160a01b038316158015906110615750826001600160a01b0316816001600160a01b031614155b801561107457506110728184610928565b155b1561109d5760405163a9fbf51f60e01b81526001600160a01b03841660048201526024016104a6565b81156110e55783856001600160a01b0316826001600160a01b03167f8c5be1e5ebec7d5bd14f71427d1e84f3dd0314c0f7b2291e5b200ac8c7c3b92560405160405180910390a45b505b5050600090815260046020526040902080546001600160a01b0319166001600160a01b0392909216919091179055565b60006001600160a01b038316158015906111755750826001600160a01b0316846001600160a01b0316148061115157506111518484610928565b8061117557506000828152600460205260409020546001600160a01b038481169116145b949350505050565b6001600160e01b031981168114610a0e57600080fd5b6000602082840312156111a557600080fd5b813561086c8161117d565b60005b838110156111cb5781810151838201526020016111b3565b50506000910152565b600081518084526111ec8160208601602086016111b0565b601f01601f19169290920160200192915050565b60208152600061086c60208301846111d4565b60006020828403121561122557600080fd5b5035919050565b80356001600160a01b038116811461124357600080fd5b919050565b6000806040838503121561125b57600080fd5b6112648361122c565b946020939093013593505050565b60008060006060848603121561128757600080fd5b6112908461122c565b925061129e6020850161122c565b9150604084013590509250925092565b600080604083850312156112c157600080fd5b823591506112d16020840161122c565b90509250929050565b6000602082840312156112ec57600080fd5b61086c8261122c565b6000806040838503121561130857600080fd5b6113118361122c565b91506020830135801515811461132657600080fd5b809150509250929050565b634e487b7160e01b600052604160045260246000fd5b6000806000806080858703121561135d57600080fd5b6113668561122c565b93506113746020860161122c565b925060408501359150606085013567ffffffffffffffff8082111561139857600080fd5b818701915087601f8301126113ac57600080fd5b8135818111156113be576113be611331565b604051601f8201601f19908116603f011681019083821181831017156113e6576113e6611331565b816040528281528a60208487010111156113ff57600080fd5b82602086016020830137600060208483010152809550505050505092959194509250565b6000806040838503121561143657600080fd5b61143f8361122c565b91506112d16020840161122c565b600181811c9082168061146157607f821691505b60208210810361148157634e487b7160e01b600052602260045260246000fd5b50919050565b6000600182016114a757634e487b7160e01b600052601160045260246000fd5b5060010190565b600083516114c08184602088016111b0565b8351908301906114d48183602088016111b0565b01949350505050565b6001600160a01b0385811682528416602082015260408101839052608060608201819052600090611510908301846111d4565b9695505050505050565b60006020828403121561152c57600080fd5b815161086c8161117d56fe126c7c8716c8f1c7c73a7370c820c7d73a9b4ed0ad633cfce1092f9ff47c8574a26469706673582212208409dcb60a29f449e07ec72f29fa06051454b38102f4b66dd2e71684817188de64736f6c63430008190033","linkReferences":{}},"methodIdentifiers":{"CONTROL_ROLE()":"d7a1e6ab","DEFAULT_ADMIN_ROLE()":"a217fddf","approve(address,uint256)":"095ea7b3","balanceOf(address)":"70a08231","burn(address)":"89afcb44","getApproved(uint256)":"081812fc","getRoleAdmin(bytes32)":"248a9ca3","grantRole(bytes32,address)":"2f2ff15d","hasRole(bytes32,address)":"91d14854","isApprovedForAll(address,address)":"e985e9c5","mintCoolNFT(address)":"74e4fe36","name()":"06fdde03","nextTokenId()":"75794a3c","ownerOf(uint256)":"6352211e","renounceRole(bytes32,address)":"36568abe","revokeRole(bytes32,address)":"d547741f","safeTransferFrom(address,address,uint256)":"42842e0e","safeTransferFrom(address,address,uint256,bytes)":"b88d4fde","setApprovalForAll(address,bool)":"a22cb465","setDAO(address)":"e73a914c","supportsInterface(bytes4)":"01ffc9a7","symbol()":"95d89b41","tokenIds(address)":"fc97a303","tokenURI(uint256)":"c87b56dd","transferFrom(address,address,uint256)":"23b872dd"},"id":38}