{"abi":[{"type":"constructor","inputs":[{"name":"powersellerNFT","type":"address","internalType":"address"},{"name":"dao","type":"address","internalType":"address"}],"stateMutability":"nonpayable"},{"type":"function","name":"CONTROL_ROLE","inputs":[],"outputs":[{"name":"","type":"bytes32","internalType":"bytes32"}],"stateMutability":"view"},{"type":"function","name":"DAO_ROLE","inputs":[],"outputs":[{"name":"","type":"bytes32","internalType":"bytes32"}],"stateMutability":"view"},{"type":"function","name":"DEFAULT_ADMIN_ROLE","inputs":[],"outputs":[{"name":"","type":"bytes32","internalType":"bytes32"}],"stateMutability":"view"},{"type":"function","name":"balance","inputs":[{"name":"","type":"address","internalType":"address"}],"outputs":[{"name":"","type":"uint256","internalType":"uint256"}],"stateMutability":"view"},{"type":"function","name":"claimRewards","inputs":[],"outputs":[],"stateMutability":"nonpayable"},{"type":"function","name":"daoContract","inputs":[],"outputs":[{"name":"","type":"address","internalType":"contract IFP_DAO"}],"stateMutability":"view"},{"type":"function","name":"doLock","inputs":[{"name":"user","type":"address","internalType":"address"},{"name":"amount","type":"uint256","internalType":"uint256"}],"outputs":[],"stateMutability":"nonpayable"},{"type":"function","name":"doSlash","inputs":[{"name":"badUser","type":"address","internalType":"address"}],"outputs":[],"stateMutability":"nonpayable"},{"type":"function","name":"doStake","inputs":[],"outputs":[],"stateMutability":"payable"},{"type":"function","name":"doUnlock","inputs":[{"name":"user","type":"address","internalType":"address"},{"name":"amount","type":"uint256","internalType":"uint256"}],"outputs":[],"stateMutability":"nonpayable"},{"type":"function","name":"doUnstake","inputs":[{"name":"amount","type":"uint256","internalType":"uint256"}],"outputs":[],"stateMutability":"nonpayable"},{"type":"function","name":"getRoleAdmin","inputs":[{"name":"role","type":"bytes32","internalType":"bytes32"}],"outputs":[{"name":"","type":"bytes32","internalType":"bytes32"}],"stateMutability":"view"},{"type":"function","name":"grantRole","inputs":[{"name":"role","type":"bytes32","internalType":"bytes32"},{"name":"account","type":"address","internalType":"address"}],"outputs":[],"stateMutability":"nonpayable"},{"type":"function","name":"hasRole","inputs":[{"name":"role","type":"bytes32","internalType":"bytes32"},{"name":"account","type":"address","internalType":"address"}],"outputs":[{"name":"","type":"bool","internalType":"bool"}],"stateMutability":"view"},{"type":"function","name":"lockedFunds","inputs":[{"name":"","type":"address","internalType":"address"}],"outputs":[{"name":"","type":"uint256","internalType":"uint256"}],"stateMutability":"view"},{"type":"function","name":"maxClaimableAmount","inputs":[],"outputs":[{"name":"","type":"uint256","internalType":"uint256"}],"stateMutability":"view"},{"type":"function","name":"powersellerContract","inputs":[],"outputs":[{"name":"","type":"address","internalType":"address"}],"stateMutability":"view"},{"type":"function","name":"renounceRole","inputs":[{"name":"role","type":"bytes32","internalType":"bytes32"},{"name":"callerConfirmation","type":"address","internalType":"address"}],"outputs":[],"stateMutability":"nonpayable"},{"type":"function","name":"revokeRole","inputs":[{"name":"role","type":"bytes32","internalType":"bytes32"},{"name":"account","type":"address","internalType":"address"}],"outputs":[],"stateMutability":"nonpayable"},{"type":"function","name":"rewardsClaimed","inputs":[{"name":"","type":"address","internalType":"address"}],"outputs":[{"name":"","type":"uint256","internalType":"uint256"}],"stateMutability":"view"},{"type":"function","name":"setShop","inputs":[{"name":"shopAddress","type":"address","internalType":"address"}],"outputs":[],"stateMutability":"nonpayable"},{"type":"function","name":"shopContract","inputs":[],"outputs":[{"name":"","type":"address","internalType":"contract IFP_Shop"}],"stateMutability":"view"},{"type":"function","name":"supportsInterface","inputs":[{"name":"interfaceId","type":"bytes4","internalType":"bytes4"}],"outputs":[{"name":"","type":"bool","internalType":"bool"}],"stateMutability":"view"},{"type":"function","name":"totalSlashed","inputs":[],"outputs":[{"name":"","type":"uint256","internalType":"uint256"}],"stateMutability":"view"},{"type":"function","name":"userBalance","inputs":[{"name":"user","type":"address","internalType":"address"}],"outputs":[{"name":"","type":"uint256","internalType":"uint256"}],"stateMutability":"view"},{"type":"function","name":"userLockedBalance","inputs":[{"name":"user","type":"address","internalType":"address"}],"outputs":[{"name":"","type":"uint256","internalType":"uint256"}],"stateMutability":"view"},{"type":"function","name":"vaultBalance","inputs":[],"outputs":[{"name":"","type":"uint256","internalType":"uint256"}],"stateMutability":"view"},{"type":"event","name":"Locked","inputs":[{"name":"user","type":"address","indexed":false,"internalType":"address"},{"name":"amount","type":"uint256","indexed":false,"internalType":"uint256"}],"anonymous":false},{"type":"event","name":"RewardsClaimed","inputs":[{"name":"user","type":"address","indexed":false,"internalType":"address"},{"name":"amount","type":"uint256","indexed":false,"internalType":"uint256"}],"anonymous":false},{"type":"event","name":"RoleAdminChanged","inputs":[{"name":"role","type":"bytes32","indexed":true,"internalType":"bytes32"},{"name":"previousAdminRole","type":"bytes32","indexed":true,"internalType":"bytes32"},{"name":"newAdminRole","type":"bytes32","indexed":true,"internalType":"bytes32"}],"anonymous":false},{"type":"event","name":"RoleGranted","inputs":[{"name":"role","type":"bytes32","indexed":true,"internalType":"bytes32"},{"name":"account","type":"address","indexed":true,"internalType":"address"},{"name":"sender","type":"address","indexed":true,"internalType":"address"}],"anonymous":false},{"type":"event","name":"RoleRevoked","inputs":[{"name":"role","type":"bytes32","indexed":true,"internalType":"bytes32"},{"name":"account","type":"address","indexed":true,"internalType":"address"},{"name":"sender","type":"address","indexed":true,"internalType":"address"}],"anonymous":false},{"type":"event","name":"Slashed","inputs":[{"name":"user","type":"address","indexed":false,"internalType":"address"},{"name":"amount","type":"uint256","indexed":false,"internalType":"uint256"}],"anonymous":false},{"type":"event","name":"Stake","inputs":[{"name":"user","type":"address","indexed":false,"internalType":"address"},{"name":"amount","type":"uint256","indexed":false,"internalType":"uint256"}],"anonymous":false},{"type":"event","name":"Unlocked","inputs":[{"name":"user","type":"address","indexed":false,"internalType":"address"},{"name":"amount","type":"uint256","indexed":false,"internalType":"uint256"}],"anonymous":false},{"type":"event","name":"Unstake","inputs":[{"name":"user","type":"address","indexed":false,"internalType":"address"},{"name":"amount","type":"uint256","indexed":false,"internalType":"uint256"}],"anonymous":false},{"type":"error","name":"AccessControlBadConfirmation","inputs":[]},{"type":"error","name":"AccessControlUnauthorizedAccount","inputs":[{"name":"account","type":"address","internalType":"address"},{"name":"neededRole","type":"bytes32","internalType":"bytes32"}]}],"bytecode":{"object":"0x60c06040526001805460ff1916905534801561001a57600080fd5b5060405161146e38038061146e8339810160408190526100399161016e565b6100637f3b5d4cc60d3ec3516ee8ae083bd60934f6eb2a6c54b1229985c41bfb092b2603826100a6565b5061008e7f126c7c8716c8f1c7c73a7370c820c7d73a9b4ed0ad633cfce1092f9ff47c8574336100a6565b506001600160a01b039182166080521660a0526101a1565b6000828152602081815260408083206001600160a01b038516845290915281205460ff16610148576000838152602081815260408083206001600160a01b03861684529091529020805460ff191660011790556101003390565b6001600160a01b0316826001600160a01b0316847f2f8788117e7eff1d82e926ec794901d17c78024a50270940304540a733656f0d60405160405180910390a450600161014c565b5060005b92915050565b80516001600160a01b038116811461016957600080fd5b919050565b6000806040838503121561018157600080fd5b61018a83610152565b915061019860208401610152565b90509250929050565b60805160a05161129a6101d4600039600061035e015260008181610426015281816108830152610f5f015261129a6000f3fe60806040526004361061019c5760003560e01c806374cb9ed8116100ec578063b86247d71161008a578063d547741f11610064578063d547741f146104ed578063d7a1e6ab1461050d578063e3d670d71461052f578063e9c265181461055c57600080fd5b8063b86247d714610473578063ce965f6a146104a0578063d3f730fd146104c057600080fd5b806391d14854116100c657806391d14854146103f45780639cef900e14610414578063a201bbdd14610448578063a217fddf1461045e57600080fd5b806374cb9ed81461038857806386e07f2f146103a85780638cf2b63e146103be57600080fd5b8063248a9ca311610159578063372500ab11610133578063372500ab146103175780634697fbfa1461032c5780634a7ffcbc1461034c5780634efa7e701461038057600080fd5b8063248a9ca3146102a75780632f2ff15d146102d757806336568abe146102f757600080fd5b80630103c92b146101a157806301ffc9a7146101ea578063076622e21461021a57806309090a511461023c5780630bf6cc08146102745780631e89e05814610287575b600080fd5b3480156101ad57600080fd5b506101d76101bc3660046110b4565b6001600160a01b031660009081526002602052604090205490565b6040519081526020015b60405180910390f35b3480156101f657600080fd5b5061020a6102053660046110d6565b610590565b60405190151581526020016101e1565b34801561022657600080fd5b5061023a610235366004611100565b6105c7565b005b34801561024857600080fd5b5060045461025c906001600160a01b031681565b6040516001600160a01b0390911681526020016101e1565b34801561028057600080fd5b50476101d7565b34801561029357600080fd5b5061023a6102a2366004611100565b6106e5565b3480156102b357600080fd5b506101d76102c236600461112a565b60009081526020819052604090206001015490565b3480156102e357600080fd5b5061023a6102f2366004611143565b61080d565b34801561030357600080fd5b5061023a610312366004611143565b610838565b34801561032357600080fd5b5061023a610870565b34801561033857600080fd5b5061023a61034736600461112a565b610a87565b34801561035857600080fd5b5061025c7f000000000000000000000000000000000000000000000000000000000000000081565b61023a610c03565b34801561039457600080fd5b5061023a6103a33660046110b4565b610c81565b3480156103b457600080fd5b506101d760055481565b3480156103ca57600080fd5b506101d76103d93660046110b4565b6001600160a01b031660009081526003602052604090205490565b34801561040057600080fd5b5061020a61040f366004611143565b610d0d565b34801561042057600080fd5b5061025c7f000000000000000000000000000000000000000000000000000000000000000081565b34801561045457600080fd5b506101d760075481565b34801561046a57600080fd5b506101d7600081565b34801561047f57600080fd5b506101d761048e3660046110b4565b60036020526000908152604090205481565b3480156104ac57600080fd5b5061023a6104bb3660046110b4565b610d36565b3480156104cc57600080fd5b506101d76104db3660046110b4565b60066020526000908152604090205481565b3480156104f957600080fd5b5061023a610508366004611143565b610de0565b34801561051957600080fd5b506101d760008051602061124583398151915281565b34801561053b57600080fd5b506101d761054a3660046110b4565b60026020526000908152604090205481565b34801561056857600080fd5b506101d77f3b5d4cc60d3ec3516ee8ae083bd60934f6eb2a6c54b1229985c41bfb092b260381565b60006001600160e01b03198216637965db0b60e01b14806105c157506301ffc9a760e01b6001600160e01b03198316145b92915050565b6000805160206112458339815191526105df81610e05565b600082116106085760405162461bcd60e51b81526004016105ff9061116f565b60405180910390fd5b6001600160a01b0383166000908152600360205260409020548211156106705760405162461bcd60e51b815260206004820152601760248201527f4e6f7420656e6f756768206c6f636b65642066756e647300000000000000000060448201526064016105ff565b6001600160a01b038316600090815260036020526040812080548492906106989084906111b4565b9091555050604080516001600160a01b0385168152602081018490527f0f0bc5b519ddefdd8e5f9e6423433aa2b869738de2ae34d58ebc796fc749fa0d91015b60405180910390a1505050565b6000805160206112458339815191526106fd81610e05565b6001600160a01b0383166000908152600260209081526040808320546003909252909120548491849181610748576f4e6f207374616b65642066756e64732160801b60005260206000fd5b8281830303600181101561077457704e6f7420656e6f7567682066756e64732160781b60005260206000fd5b50600086116107955760405162461bcd60e51b81526004016105ff9061116f565b6001600160a01b038716600090815260036020526040812080548892906107bd9084906111c7565b9091555050604080516001600160a01b0389168152602081018890527f9f1ec8c880f76798e7b793325d625e9b60e4082a553c98f42b6cda368dd60008910160405180910390a150505050505050565b60008281526020819052604090206001015461082881610e05565b6108328383610e12565b50505050565b6001600160a01b03811633146108615760405163334bd91960e11b815260040160405180910390fd5b61086b8282610ea4565b505050565b6040513360248201526001600160a01b037f0000000000000000000000000000000000000000000000000000000000000000169060440160408051601f198184030181529181526020820180516001600160e01b03166313b10d4d60e31b179052516108dc91906111da565b6000604051808303816000865af19150503d8060008114610919576040519150601f19603f3d011682016040523d82523d6000602084013e61091e565b606091505b5050600554336000908152600660205260409020541090506109825760405162461bcd60e51b815260206004820152601c60248201527f4d617820636c61696d61626c6520616d6f756e7420726561636865640000000060448201526064016105ff565b3360009081526006602052604081205460055461099f91906111b4565b604051909150600090339083908381818185875af1925050503d80600081146109e4576040519150601f19603f3d011682016040523d82523d6000602084013e6109e9565b606091505b5050905080610a335760405162461bcd60e51b815260206004820152601660248201527514995dd85c991cc81c185e5b595b9d0819985a5b195960521b60448201526064016105ff565b600554336000818152600660209081526040918290209390935580519182529181018490527ffc30cddea38e2bf4d6ea7d3f9ed3b6ad7f176419f4963bd81318067a4aee73fe910160405180910390a15050565b3360008181526002602090815260408083205460039092529091205483919081610ac8576f4e6f207374616b65642066756e64732160801b60005260206000fd5b82818303036001811015610af457704e6f7420656e6f7567682066756e64732160781b60005260206000fd5b5060008511610b155760405162461bcd60e51b81526004016105ff9061116f565b3360009081526002602052604081208054879290610b349084906111b4565b9091555050604051600090339087908381818185875af1925050503d8060008114610b7b576040519150601f19603f3d011682016040523d82523d6000602084013e610b80565b606091505b5050905080610bc25760405162461bcd60e51b815260206004820152600e60248201526d155b9cdd185ad94819985a5b195960921b60448201526064016105ff565b60408051338152602081018890527f85082129d87b2fe11527cb1b3b7a520aeb5aa6913f88a3d8757fe40d1db02fdd910160405180910390a1505050505050565b60003411610c235760405162461bcd60e51b81526004016105ff9061116f565b3360009081526002602052604081208054349290610c429084906111c7565b9091555050604080513381523460208201527febedb8b3c678666e7f36970bc8f57abf6d8fa2e828c0da91ea5b75bf68ed101a910160405180910390a1565b600080516020611245833981519152610c9981610e05565b6001600160a01b03821660009081526002602090815260408083208054908490556003909252822091909155610cce81610f0f565b604080516001600160a01b0385168152602081018390527f4ed05e9673c26d2ed44f7ef6a7f2942df0ee3b5e1e17db4b99f9dcd261a339cd91016106d8565b6000918252602082815260408084206001600160a01b0393909316845291905290205460ff1690565b600080516020611245833981519152610d4e81610e05565b60015460ff1615610da15760405162461bcd60e51b815260206004820152601860248201527f53686f70206164647265737320616c726561647920736574000000000000000060448201526064016105ff565b6001805460ff191681179055600480546001600160a01b0319166001600160a01b03841617905561086b60008051602061124583398151915283610e12565b600082815260208190526040902060010154610dfb81610e05565b6108328383610ea4565b610e0f8133611044565b50565b6000610e1e8383610d0d565b610e9c576000838152602081815260408083206001600160a01b03861684529091529020805460ff19166001179055610e543390565b6001600160a01b0316826001600160a01b0316847f2f8788117e7eff1d82e926ec794901d17c78024a50270940304540a733656f0d60405160405180910390a45060016105c1565b5060006105c1565b6000610eb08383610d0d565b15610e9c576000838152602081815260408083206001600160a01b0386168085529252808320805460ff1916905551339286917ff6391f5c32d9c69d2a47ea670b442974b53935d1edc7fd64eb21e047a839171b9190a45060016105c1565b8060076000828254610f2191906111c7565b909155505060408051600481526024810182526020810180516001600160e01b03166385aa2e1b60e01b179052905160009182916001600160a01b037f00000000000000000000000000000000000000000000000000000000000000001691610f89916111da565b6000604051808303816000865af19150503d8060008114610fc6576040519150601f19603f3d011682016040523d82523d6000602084013e610fcb565b606091505b50915091508161101d5760405162461bcd60e51b815260206004820152601f60248201527f746f74616c506f77657273656c6c65727328292063616c6c206661696c65640060448201526064016105ff565b6000818060200190518101906110339190611209565b905080156108325761083281611081565b61104e8282610d0d565b61107d5760405163e2517d3f60e01b81526001600160a01b0382166004820152602481018390526044016105ff565b5050565b6000816007546110919190611222565b6005555050565b80356001600160a01b03811681146110af57600080fd5b919050565b6000602082840312156110c657600080fd5b6110cf82611098565b9392505050565b6000602082840312156110e857600080fd5b81356001600160e01b0319811681146110cf57600080fd5b6000806040838503121561111357600080fd5b61111c83611098565b946020939093013593505050565b60006020828403121561113c57600080fd5b5035919050565b6000806040838503121561115657600080fd5b8235915061116660208401611098565b90509250929050565b602080825260159082015274416d6f756e742063616e6e6f74206265207a65726f60581b604082015260600190565b634e487b7160e01b600052601160045260246000fd5b818103818111156105c1576105c161119e565b808201808211156105c1576105c161119e565b6000825160005b818110156111fb57602081860181015185830152016111e1565b506000920191825250919050565b60006020828403121561121b57600080fd5b5051919050565b60008261123f57634e487b7160e01b600052601260045260246000fd5b50049056fe126c7c8716c8f1c7c73a7370c820c7d73a9b4ed0ad633cfce1092f9ff47c8574a26469706673582212202805d51fc4be58a3ee7570ec74120274173d51a114e54025683ee1afd67d955764736f6c63430008190033","linkReferences":{}},"methodIdentifiers":{"CONTROL_ROLE()":"d7a1e6ab","DAO_ROLE()":"e9c26518","DEFAULT_ADMIN_ROLE()":"a217fddf","balance(address)":"e3d670d7","claimRewards()":"372500ab","daoContract()":"4a7ffcbc","doLock(address,uint256)":"1e89e058","doSlash(address)":"74cb9ed8","doStake()":"4efa7e70","doUnlock(address,uint256)":"076622e2","doUnstake(uint256)":"4697fbfa","getRoleAdmin(bytes32)":"248a9ca3","grantRole(bytes32,address)":"2f2ff15d","hasRole(bytes32,address)":"91d14854","lockedFunds(address)":"b86247d7","maxClaimableAmount()":"86e07f2f","powersellerContract()":"9cef900e","renounceRole(bytes32,address)":"36568abe","revokeRole(bytes32,address)":"d547741f","rewardsClaimed(address)":"d3f730fd","setShop(address)":"ce965f6a","shopContract()":"09090a51","supportsInterface(bytes4)":"01ffc9a7","totalSlashed()":"a201bbdd","userBalance(address)":"0103c92b","userLockedBalance(address)":"8cf2b63e","vaultBalance()":"0bf6cc08"},"id":43}